{
  "_format": "hh-sol-artifact-1",
  "contractName": "TaskRegistry",
  "sourceName": "contracts/TaskRegistry.sol",
  "abi": [
    {
      "inputs": [
        {
          "internalType": "address",
          "name": "_hocaToken",
          "type": "address"
        },
        {
          "internalType": "address",
          "name": "_holonSBT",
          "type": "address"
        }
      ],
      "stateMutability": "nonpayable",
      "type": "constructor"
    },
    {
      "inputs": [],
      "name": "AccessControlBadConfirmation",
      "type": "error"
    },
    {
      "inputs": [
        {
          "internalType": "address",
          "name": "account",
          "type": "address"
        },
        {
          "internalType": "bytes32",
          "name": "neededRole",
          "type": "bytes32"
        }
      ],
      "name": "AccessControlUnauthorizedAccount",
      "type": "error"
    },
    {
      "anonymous": false,
      "inputs": [
        {
          "indexed": true,
          "internalType": "bytes32",
          "name": "role",
          "type": "bytes32"
        },
        {
          "indexed": true,
          "internalType": "bytes32",
          "name": "previousAdminRole",
          "type": "bytes32"
        },
        {
          "indexed": true,
          "internalType": "bytes32",
          "name": "newAdminRole",
          "type": "bytes32"
        }
      ],
      "name": "RoleAdminChanged",
      "type": "event"
    },
    {
      "anonymous": false,
      "inputs": [
        {
          "indexed": true,
          "internalType": "bytes32",
          "name": "role",
          "type": "bytes32"
        },
        {
          "indexed": true,
          "internalType": "address",
          "name": "account",
          "type": "address"
        },
        {
          "indexed": true,
          "internalType": "address",
          "name": "sender",
          "type": "address"
        }
      ],
      "name": "RoleGranted",
      "type": "event"
    },
    {
      "anonymous": false,
      "inputs": [
        {
          "indexed": true,
          "internalType": "bytes32",
          "name": "role",
          "type": "bytes32"
        },
        {
          "indexed": true,
          "internalType": "address",
          "name": "account",
          "type": "address"
        },
        {
          "indexed": true,
          "internalType": "address",
          "name": "sender",
          "type": "address"
        }
      ],
      "name": "RoleRevoked",
      "type": "event"
    },
    {
      "anonymous": false,
      "inputs": [
        {
          "indexed": true,
          "internalType": "bytes32",
          "name": "taskId",
          "type": "bytes32"
        },
        {
          "indexed": true,
          "internalType": "address",
          "name": "executor",
          "type": "address"
        },
        {
          "indexed": false,
          "internalType": "uint256",
          "name": "recompensaHoca",
          "type": "uint256"
        }
      ],
      "name": "TaskApproved",
      "type": "event"
    },
    {
      "inputs": [],
      "name": "DEFAULT_ADMIN_ROLE",
      "outputs": [
        {
          "internalType": "bytes32",
          "name": "",
          "type": "bytes32"
        }
      ],
      "stateMutability": "view",
      "type": "function"
    },
    {
      "inputs": [],
      "name": "TENZO_ROLE",
      "outputs": [
        {
          "internalType": "bytes32",
          "name": "",
          "type": "bytes32"
        }
      ],
      "stateMutability": "view",
      "type": "function"
    },
    {
      "inputs": [
        {
          "internalType": "address",
          "name": "executor",
          "type": "address"
        },
        {
          "internalType": "string",
          "name": "holonId",
          "type": "string"
        },
        {
          "internalType": "string",
          "name": "categoria",
          "type": "string"
        },
        {
          "internalType": "uint256",
          "name": "duracionHoras",
          "type": "uint256"
        },
        {
          "internalType": "uint256",
          "name": "recompensaHoca",
          "type": "uint256"
        },
        {
          "internalType": "string",
          "name": "razonamiento",
          "type": "string"
        }
      ],
      "name": "approveTask",
      "outputs": [
        {
          "internalType": "bytes32",
          "name": "",
          "type": "bytes32"
        }
      ],
      "stateMutability": "nonpayable",
      "type": "function"
    },
    {
      "inputs": [
        {
          "internalType": "bytes32",
          "name": "role",
          "type": "bytes32"
        }
      ],
      "name": "getRoleAdmin",
      "outputs": [
        {
          "internalType": "bytes32",
          "name": "",
          "type": "bytes32"
        }
      ],
      "stateMutability": "view",
      "type": "function"
    },
    {
      "inputs": [],
      "name": "getStats",
      "outputs": [
        {
          "internalType": "uint256",
          "name": "_totalTasks",
          "type": "uint256"
        },
        {
          "internalType": "uint256",
          "name": "_totalHocaMinted",
          "type": "uint256"
        }
      ],
      "stateMutability": "view",
      "type": "function"
    },
    {
      "inputs": [
        {
          "internalType": "address",
          "name": "executor",
          "type": "address"
        }
      ],
      "name": "getTasksByExecutor",
      "outputs": [
        {
          "internalType": "bytes32[]",
          "name": "",
          "type": "bytes32[]"
        }
      ],
      "stateMutability": "view",
      "type": "function"
    },
    {
      "inputs": [
        {
          "internalType": "string",
          "name": "holonId",
          "type": "string"
        }
      ],
      "name": "getTasksByHolon",
      "outputs": [
        {
          "internalType": "bytes32[]",
          "name": "",
          "type": "bytes32[]"
        }
      ],
      "stateMutability": "view",
      "type": "function"
    },
    {
      "inputs": [
        {
          "internalType": "bytes32",
          "name": "role",
          "type": "bytes32"
        },
        {
          "internalType": "address",
          "name": "account",
          "type": "address"
        }
      ],
      "name": "grantRole",
      "outputs": [],
      "stateMutability": "nonpayable",
      "type": "function"
    },
    {
      "inputs": [
        {
          "internalType": "bytes32",
          "name": "role",
          "type": "bytes32"
        },
        {
          "internalType": "address",
          "name": "account",
          "type": "address"
        }
      ],
      "name": "hasRole",
      "outputs": [
        {
          "internalType": "bool",
          "name": "",
          "type": "bool"
        }
      ],
      "stateMutability": "view",
      "type": "function"
    },
    {
      "inputs": [],
      "name": "hocaToken",
      "outputs": [
        {
          "internalType": "contract HoCaToken",
          "name": "",
          "type": "address"
        }
      ],
      "stateMutability": "view",
      "type": "function"
    },
    {
      "inputs": [],
      "name": "holonSBT",
      "outputs": [
        {
          "internalType": "contract HolonSBT",
          "name": "",
          "type": "address"
        }
      ],
      "stateMutability": "view",
      "type": "function"
    },
    {
      "inputs": [
        {
          "internalType": "bytes32",
          "name": "role",
          "type": "bytes32"
        },
        {
          "internalType": "address",
          "name": "callerConfirmation",
          "type": "address"
        }
      ],
      "name": "renounceRole",
      "outputs": [],
      "stateMutability": "nonpayable",
      "type": "function"
    },
    {
      "inputs": [
        {
          "internalType": "bytes32",
          "name": "role",
          "type": "bytes32"
        },
        {
          "internalType": "address",
          "name": "account",
          "type": "address"
        }
      ],
      "name": "revokeRole",
      "outputs": [],
      "stateMutability": "nonpayable",
      "type": "function"
    },
    {
      "inputs": [
        {
          "internalType": "bytes4",
          "name": "interfaceId",
          "type": "bytes4"
        }
      ],
      "name": "supportsInterface",
      "outputs": [
        {
          "internalType": "bool",
          "name": "",
          "type": "bool"
        }
      ],
      "stateMutability": "view",
      "type": "function"
    },
    {
      "inputs": [
        {
          "internalType": "bytes32",
          "name": "",
          "type": "bytes32"
        }
      ],
      "name": "tasks",
      "outputs": [
        {
          "internalType": "address",
          "name": "executor",
          "type": "address"
        },
        {
          "internalType": "string",
          "name": "holonId",
          "type": "string"
        },
        {
          "internalType": "string",
          "name": "categoria",
          "type": "string"
        },
        {
          "internalType": "uint256",
          "name": "duracionHoras",
          "type": "uint256"
        },
        {
          "internalType": "uint256",
          "name": "recompensaHoca",
          "type": "uint256"
        },
        {
          "internalType": "string",
          "name": "razonamiento",
          "type": "string"
        },
        {
          "internalType": "uint256",
          "name": "createdAt",
          "type": "uint256"
        }
      ],
      "stateMutability": "view",
      "type": "function"
    },
    {
      "inputs": [
        {
          "internalType": "address",
          "name": "",
          "type": "address"
        },
        {
          "internalType": "uint256",
          "name": "",
          "type": "uint256"
        }
      ],
      "name": "tasksByExecutor",
      "outputs": [
        {
          "internalType": "bytes32",
          "name": "",
          "type": "bytes32"
        }
      ],
      "stateMutability": "view",
      "type": "function"
    },
    {
      "inputs": [
        {
          "internalType": "string",
          "name": "",
          "type": "string"
        },
        {
          "internalType": "uint256",
          "name": "",
          "type": "uint256"
        }
      ],
      "name": "tasksByHolon",
      "outputs": [
        {
          "internalType": "bytes32",
          "name": "",
          "type": "bytes32"
        }
      ],
      "stateMutability": "view",
      "type": "function"
    },
    {
      "inputs": [],
      "name": "totalHocaMinted",
      "outputs": [
        {
          "internalType": "uint256",
          "name": "",
          "type": "uint256"
        }
      ],
      "stateMutability": "view",
      "type": "function"
    },
    {
      "inputs": [],
      "name": "totalTasks",
      "outputs": [
        {
          "internalType": "uint256",
          "name": "",
          "type": "uint256"
        }
      ],
      "stateMutability": "view",
      "type": "function"
    }
  ],
  "bytecode": "0x60c034620000c257601f6200168438819003918201601f19168301916001600160401b03831184841017620000c7578084926040948552833981010312620000c2576200005a60206200005283620000dd565b9201620000dd565b6001600160a01b039182166080521660a0526200007733620000f2565b50620000833362000172565b5060405161144f90816200021582396080518181816105450152610a2a015260a0518181816105f30152818161074c01528181610abd0152610b160152f35b600080fd5b634e487b7160e01b600052604160045260246000fd5b51906001600160a01b0382168203620000c257565b6001600160a01b031660008181527fad3228b676f7d3cd4284a5443f17f1962b36e491b30a40b2405849e597ba5fb5602052604081205490919060ff166200016e57818052816020526040822081835260205260408220600160ff198254161790553391600080516020620016648339815191528180a4600190565b5090565b6001600160a01b031660008181527f8ec28f7842dbf9ccbdb0712377d51abbc4472775e327c5ef4274da57fd9242d660205260408120549091907f720f0505458589595ba058bcfd851343d33065f41d4f031c4abb4757e37b3a189060ff166200020f57808352826020526040832082845260205260408320600160ff1982541617905560008051602062001664833981519152339380a4600190565b50509056fe608080604052600436101561001357600080fd5b600090813560e01c90816301ffc9a714610ff25750806312ef448814610622578063215a9e3e146105dd578063248a9ca3146105b15780632f2ff15d14610574578063361ae5fe1461052f57806336568abe146104e75780634803bf87146104915780634ac6466f146104005780634d419c53146103e257806391d1485414610397578063a217fddf1461037b578063bd039638146102f8578063c59d4847146102d3578063d22c81e5146102b5578063d547741f14610274578063e579f500146101c1578063e68ee8da1461012f5763fa0f6f1c146100f257600080fd5b3461012c578060031936011261012c5760206040517f720f0505458589595ba058bcfd851343d33065f41d4f031c4abb4757e37b3a188152f35b80fd5b503461012c57604036600319011261012c576004356001600160401b0381116101bd57366023820112156101bd57610171903690602481600401359101611280565b9061018e6020602435938160405193828580945193849201611238565b8101600381520301902090815483101561012c5760206101ae84846110a5565b90549060031b1c604051908152f35b5080fd5b503461012c57602036600319011261012c57604090600435815260016020522060018060a01b038154166101f760018301611192565b9161026a61020760028301611192565b916003810154906004810154610252600661022460058501611192565b93015495610244604051998a998a5260e060208b015260e08a019061125b565b9088820360408a015261125b565b926060870152608086015284820360a086015261125b565b9060c08301520390f35b503461012c57604036600319011261012c576102b1600435610294611062565b90808452836020526102ac60016040862001546112c6565b61136a565b5080f35b503461012c578060031936011261012c576020600454604051908152f35b503461012c578060031936011261012c57604060045460055482519182526020820152f35b503461012c576020806003193601126101bd576001600160a01b0361031b611047565b1682526002815260408220916040518092808554928381520194835280832092905b828210610364576103608561035481890382611171565b604051918291826110d3565b0390f35b83548652948501946001938401939091019061033d565b503461012c578060031936011261012c57602090604051908152f35b503461012c57604036600319011261012c5760406103b3611062565b91600435815280602052209060018060a01b0316600052602052602060ff604060002054166040519015158152f35b503461012c578060031936011261012c576020600554604051908152f35b503461012c576020806003193601126101bd576004356001600160401b03811161048d5761043382913690600401611078565b919082604051938492833781016003815203019020916040518092808554928381520194835280832092905b828210610476576103608561035481890382611171565b83548652948501946001938401939091019061045f565b8280fd5b503461012c57604036600319011261012c576104ab611047565b6001600160a01b031681526002602052604081208054602435929083101561012c5760206104d984846110a5565b90546040519160031b1c8152f35b503461012c57604036600319011261012c57610501611062565b336001600160a01b0382160361051d576102b19060043561136a565b60405163334bd91960e11b8152600490fd5b503461012c578060031936011261012c576040517f00000000000000000000000000000000000000000000000000000000000000006001600160a01b03168152602090f35b503461012c57604036600319011261012c576102b1600435610594611062565b90808452836020526105ac60016040862001546112c6565b6112ec565b503461012c57602036600319011261012c57600160406020926004358152808452200154604051908152f35b503461012c578060031936011261012c576040517f00000000000000000000000000000000000000000000000000000000000000006001600160a01b03168152602090f35b503461012c5760c036600319011261012c5761063c611047565b6024356001600160401b03811161048d5761065b903690600401611078565b6044929192356001600160401b038111610fee5761067d903690600401611078565b939060a4356001600160401b038111610fea5761069e903690600401611078565b7f720f0505458589595ba058bcfd851343d33065f41d4f031c4abb4757e37b3a188089528860205260408920338a5260205260ff60408a20541615610fcc57506001600160a01b03861615610f785760843515610f1c57604080516342d1f85560e11b81526001600160a01b0388166004820152602481019190915260448101869052858560648301378860648783010152602081606481601f19601f8b0116810103018160018060a01b037f0000000000000000000000000000000000000000000000000000000000000000165afa908115610f11578991610ed2575b5015610e715760045492604051936bffffffffffffffffffffffff198860601b1660208601524260348601526054850152605484528360808101106001600160401b03608086011117610cb557608084016040528351602085012097608085016101608601106001600160401b0361016087011117610e5d5761016085016040526001600160a01b038816608086015261084a93929161082d91610821368a8a611280565b60a08801523691611280565b60c085015260643560e08501526084356101008501523691611280565b61012082015242610140820152848652600160205260408620608082015181546001600160a01b0319166001600160a01b039190911617815560a08201518051919291906001600160401b038211610cb55781906108ab600186015461110e565b601f8111610e0d575b50602090601f8311600114610d9e578a92610d93575b50508160011b916000199060031b1c19161760018301555b60c08101518051906001600160401b038211610cb5578190610907600286015461110e565b601f8111610d43575b50602090601f8311600114610cd4578a92610cc9575b50508160011b916000199060031b1c19161760028301555b60e0810151600383015561010081015160048301556101208101518051906001600160401b038211610cb5579083929161097d60058a9796015461110e565b601f8111610c5d575b506020908a601f8411600114610bda5793836020969460069461014094610a039c9a9892610bcf575b50508160011b916000199060031b1c19161760058501555b01519101556001600160a01b038616885260028252604088206109eb9085906113df565b826040519384928337810160038152030190206113df565b6004546000198114610bbb576001016004556005546084358101809111610bbb57600555827f00000000000000000000000000000000000000000000000000000000000000006001600160a01b0316803b156101bd57604051632732f61760e01b81526001600160a01b038416600482015230602482015260848035604483015260648201869052909291839190829084905af18015610b9957610ba8575b506001600160a01b03818116845260026020526040842054907f0000000000000000000000000000000000000000000000000000000000000000163b15610ba457604051631eb9234160e31b81526001600160a01b03838116600483015260248201929092529084908290604490829084907f0000000000000000000000000000000000000000000000000000000000000000165af18015610b9957610b85575b60208383817f7204d52bb2f8187e2306c5fa12645fcab49a6a8d5125a9334cf6315c108403108460405193608435855260018060a01b031693a3604051908152f35b610b8f8491611148565b61048d5782610b43565b6040513d86823e3d90fd5b8380fd5b610bb490939193611148565b9138610aa2565b634e487b7160e01b84526011600452602484fd5b0151905038806109af565b50600585949392989695018b5260208b20908b5b601f1984168110610c4257509260018361014093610a039b6020999897600697601f19811610610c29575b505050811b0160058501556109c7565b015160001960f88460031b161c19169055388080610c19565b818a015183556020998a01998c995060019093019201610bee565b90919293949550600585018a5260208a20601f840160051c810160208510610cae575b908a979695949392915b601f830160051c82018110610ca0575050610986565b8c81558b9850600101610c8a565b5080610c80565b634e487b7160e01b89526041600452602489fd5b015190503880610926565b9250600285018a5260208a20908a935b601f1984168510610d28576001945083601f19811610610d0f575b505050811b01600283015561093e565b015160001960f88460031b161c19169055388080610cff565b81810151835560209485019460019093019290910190610ce4565b909150600285018a5260208a20601f840160051c810160208510610d8c575b90849392915b601f830160051c82018110610d7e575050610910565b8c8155859450600101610d68565b5080610d62565b0151905038806108ca565b9250600185018a5260208a20908a935b601f1984168510610df2576001945083601f19811610610dd9575b505050811b0160018301556108e2565b015160001960f88460031b161c19169055388080610dc9565b81810151835560209485019460019093019290910190610dae565b909150600185018a5260208a20601f840160051c810160208510610e56575b90849392915b601f830160051c82018110610e485750506108b4565b8c8155859450600101610e32565b5080610e2c565b634e487b7160e01b8a52604160045260248afd5b60405162461bcd60e51b815260206004820152603360248201527f5461736b52656769737472793a206578656375746f72206973206e6f7420612060448201527236b2b6b132b91037b3103a3432902437b637b760691b6064820152608490fd5b90506020813d602011610f09575b81610eed60209383611171565b81010312610f0557518015158103610f05573861077c565b8880fd5b3d9150610ee0565b6040513d8b823e3d90fd5b60405162461bcd60e51b815260206004820152602e60248201527f5461736b52656769737472793a20726577617264206d7573742062652067726560448201526d61746572207468616e207a65726f60901b6064820152608490fd5b60405162461bcd60e51b815260206004820152602660248201527f5461736b52656769737472793a20696e76616c6964206578656375746f72206160448201526564647265737360d01b6064820152608490fd5b6044906040519063e2517d3f60e01b82523360048301526024820152fd5b8680fd5b8480fd5b9050346101bd5760203660031901126101bd5760043563ffffffff60e01b811680910361048d5760209250637965db0b60e01b8114908115611036575b5015158152f35b6301ffc9a760e01b1490503861102f565b600435906001600160a01b038216820361105d57565b600080fd5b602435906001600160a01b038216820361105d57565b9181601f8401121561105d578235916001600160401b03831161105d576020838186019501011161105d57565b80548210156110bd5760005260206000200190600090565b634e487b7160e01b600052603260045260246000fd5b6020908160408183019282815285518094520193019160005b8281106110fa575050505090565b8351855293810193928101926001016110ec565b90600182811c9216801561113e575b602083101461112857565b634e487b7160e01b600052602260045260246000fd5b91607f169161111d565b6001600160401b03811161115b57604052565b634e487b7160e01b600052604160045260246000fd5b90601f801991011681019081106001600160401b0382111761115b57604052565b90604051918260008254926111a68461110e565b90818452600194858116908160001461121557506001146111d2575b50506111d092500383611171565b565b9093915060005260209081600020936000915b8183106111fd5750506111d0935082010138806111c2565b855488840185015294850194879450918301916111e5565b9150506111d094506020925060ff191682840152151560051b82010138806111c2565b60005b83811061124b5750506000910152565b818101518382015260200161123b565b9060209161127481518092818552858086019101611238565b601f01601f1916010190565b9291926001600160401b03821161115b57604051916112a9601f8201601f191660200184611171565b82948184528183011161105d578281602093846000960137010152565b80600052600060205260406000203360005260205260ff6040600020541615610fcc5750565b9060009180835282602052604083209160018060a01b03169182845260205260ff6040842054161560001461136557808352826020526040832082845260205260408320600160ff198254161790557f2f8788117e7eff1d82e926ec794901d17c78024a50270940304540a733656f0d339380a4600190565b505090565b9060009180835282602052604083209160018060a01b03169182845260205260ff6040842054166000146113655780835282602052604083208284526020526040832060ff1981541690557ff6391f5c32d9c69d2a47ea670b442974b53935d1edc7fd64eb21e047a839171b339380a4600190565b80546801000000000000000081101561115b57611401916001820181556110a5565b819291549060031b91821b91600019901b191617905556fea2646970667358221220f51989ab12c7dd5a5390c325b4f0e2a3b9908235e28f093491ff72451433f8aa64736f6c634300081400332f8788117e7eff1d82e926ec794901d17c78024a50270940304540a733656f0d",
  "linkReferences": {},
  "deployedLinkReferences": {}
}