{"contracts/TaskRegistry.sol":{"TaskRegistry":{"abi":[{"inputs":[{"internalType":"address","name":"_hocaToken","type":"address"},{"internalType":"address","name":"_holonSBT","type":"address"}],"stateMutability":"nonpayable","type":"constructor"},{"inputs":[],"name":"AccessControlBadConfirmation","type":"error"},{"inputs":[{"internalType":"address","name":"account","type":"address"},{"internalType":"bytes32","name":"neededRole","type":"bytes32"}],"name":"AccessControlUnauthorizedAccount","type":"error"},{"anonymous":false,"inputs":[{"indexed":true,"internalType":"bytes32","name":"role","type":"bytes32"},{"indexed":true,"internalType":"bytes32","name":"previousAdminRole","type":"bytes32"},{"indexed":true,"internalType":"bytes32","name":"newAdminRole","type":"bytes32"}],"name":"RoleAdminChanged","type":"event"},{"anonymous":false,"inputs":[{"indexed":true,"internalType":"bytes32","name":"role","type":"bytes32"},{"indexed":true,"internalType":"address","name":"account","type":"address"},{"indexed":true,"internalType":"address","name":"sender","type":"address"}],"name":"RoleGranted","type":"event"},{"anonymous":false,"inputs":[{"indexed":true,"internalType":"bytes32","name":"role","type":"bytes32"},{"indexed":true,"internalType":"address","name":"account","type":"address"},{"indexed":true,"internalType":"address","name":"sender","type":"address"}],"name":"RoleRevoked","type":"event"},{"anonymous":false,"inputs":[{"indexed":true,"internalType":"bytes32","name":"taskId","type":"bytes32"},{"indexed":true,"internalType":"address","name":"executor","type":"address"},{"indexed":false,"internalType":"uint256","name":"recompensaHoca","type":"uint256"}],"name":"TaskApproved","type":"event"},{"inputs":[],"name":"DEFAULT_ADMIN_ROLE","outputs":[{"internalType":"bytes32","name":"","type":"bytes32"}],"stateMutability":"view","type":"function"},{"inputs":[],"name":"TENZO_ROLE","outputs":[{"internalType":"bytes32","name":"","type":"bytes32"}],"stateMutability":"view","type":"function"},{"inputs":[{"internalType":"address","name":"executor","type":"address"},{"internalType":"string","name":"holonId","type":"string"},{"internalType":"string","name":"categoria","type":"string"},{"internalType":"uint256","name":"duracionHoras","type":"uint256"},{"internalType":"uint256","name":"recompensaHoca","type":"uint256"},{"internalType":"string","name":"razonamiento","type":"string"}],"name":"approveTask","outputs":[{"internalType":"bytes32","name":"","type":"bytes32"}],"stateMutability":"nonpayable","type":"function"},{"inputs":[{"internalType":"bytes32","name":"role","type":"bytes32"}],"name":"getRoleAdmin","outputs":[{"internalType":"bytes32","name":"","type":"bytes32"}],"stateMutability":"view","type":"function"},{"inputs":[],"name":"getStats","outputs":[{"internalType":"uint256","name":"_totalTasks","type":"uint256"},{"internalType":"uint256","name":"_totalHocaMinted","type":"uint256"}],"stateMutability":"view","type":"function"},{"inputs":[{"internalType":"address","name":"executor","type":"address"}],"name":"getTasksByExecutor","outputs":[{"internalType":"bytes32[]","name":"","type":"bytes32[]"}],"stateMutability":"view","type":"function"},{"inputs":[{"internalType":"string","name":"holonId","type":"string"}],"name":"getTasksByHolon","outputs":[{"internalType":"bytes32[]","name":"","type":"bytes32[]"}],"stateMutability":"view","type":"function"},{"inputs":[{"internalType":"bytes32","name":"role","type":"bytes32"},{"internalType":"address","name":"account","type":"address"}],"name":"grantRole","outputs":[],"stateMutability":"nonpayable","type":"function"},{"inputs":[{"internalType":"bytes32","name":"role","type":"bytes32"},{"internalType":"address","name":"account","type":"address"}],"name":"hasRole","outputs":[{"internalType":"bool","name":"","type":"bool"}],"stateMutability":"view","type":"function"},{"inputs":[],"name":"hocaToken","outputs":[{"internalType":"contract HoCaToken","name":"","type":"address"}],"stateMutability":"view","type":"function"},{"inputs":[],"name":"holonSBT","outputs":[{"internalType":"contract HolonSBT","name":"","type":"address"}],"stateMutability":"view","type":"function"},{"inputs":[{"internalType":"bytes32","name":"role","type":"bytes32"},{"internalType":"address","name":"callerConfirmation","type":"address"}],"name":"renounceRole","outputs":[],"stateMutability":"nonpayable","type":"function"},{"inputs":[{"internalType":"bytes32","name":"role","type":"bytes32"},{"internalType":"address","name":"account","type":"address"}],"name":"revokeRole","outputs":[],"stateMutability":"nonpayable","type":"function"},{"inputs":[{"internalType":"bytes4","name":"interfaceId","type":"bytes4"}],"name":"supportsInterface","outputs":[{"internalType":"bool","name":"","type":"bool"}],"stateMutability":"view","type":"function"},{"inputs":[{"internalType":"bytes32","name":"","type":"bytes32"}],"name":"tasks","outputs":[{"internalType":"address","name":"executor","type":"address"},{"internalType":"string","name":"holonId","type":"string"},{"internalType":"string","name":"categoria","type":"string"},{"internalType":"uint256","name":"duracionHoras","type":"uint256"},{"internalType":"uint256","name":"recompensaHoca","type":"uint256"},{"internalType":"string","name":"razonamiento","type":"string"},{"internalType":"uint256","name":"createdAt","type":"uint256"}],"stateMutability":"view","type":"function"},{"inputs":[{"internalType":"address","name":"","type":"address"},{"internalType":"uint256","name":"","type":"uint256"}],"name":"tasksByExecutor","outputs":[{"internalType":"bytes32","name":"","type":"bytes32"}],"stateMutability":"view","type":"function"},{"inputs":[{"internalType":"string","name":"","type":"string"},{"internalType":"uint256","name":"","type":"uint256"}],"name":"tasksByHolon","outputs":[{"internalType":"bytes32","name":"","type":"bytes32"}],"stateMutability":"view","type":"function"},{"inputs":[],"name":"totalHocaMinted","outputs":[{"internalType":"uint256","name":"","type":"uint256"}],"stateMutability":"view","type":"function"},{"inputs":[],"name":"totalTasks","outputs":[{"internalType":"uint256","name":"","type":"uint256"}],"stateMutability":"view","type":"function"}],"evm":{"bytecode":{"linkReferences":{},"object":"60c034620000c257601f6200168438819003918201601f19168301916001600160401b03831184841017620000c7578084926040948552833981010312620000c2576200005a60206200005283620000dd565b9201620000dd565b6001600160a01b039182166080521660a0526200007733620000f2565b50620000833362000172565b5060405161144f90816200021582396080518181816105450152610a2a015260a0518181816105f30152818161074c01528181610abd0152610b160152f35b600080fd5b634e487b7160e01b600052604160045260246000fd5b51906001600160a01b0382168203620000c257565b6001600160a01b031660008181527fad3228b676f7d3cd4284a5443f17f1962b36e491b30a40b2405849e597ba5fb5602052604081205490919060ff166200016e57818052816020526040822081835260205260408220600160ff198254161790553391600080516020620016648339815191528180a4600190565b5090565b6001600160a01b031660008181527f8ec28f7842dbf9ccbdb0712377d51abbc4472775e327c5ef4274da57fd9242d660205260408120549091907f720f0505458589595ba058bcfd851343d33065f41d4f031c4abb4757e37b3a189060ff166200020f57808352826020526040832082845260205260408320600160ff1982541617905560008051602062001664833981519152339380a4600190565b50509056fe608080604052600436101561001357600080fd5b600090813560e01c90816301ffc9a714610ff25750806312ef448814610622578063215a9e3e146105dd578063248a9ca3146105b15780632f2ff15d14610574578063361ae5fe1461052f57806336568abe146104e75780634803bf87146104915780634ac6466f146104005780634d419c53146103e257806391d1485414610397578063a217fddf1461037b578063bd039638146102f8578063c59d4847146102d3578063d22c81e5146102b5578063d547741f14610274578063e579f500146101c1578063e68ee8da1461012f5763fa0f6f1c146100f257600080fd5b3461012c578060031936011261012c5760206040517f720f0505458589595ba058bcfd851343d33065f41d4f031c4abb4757e37b3a188152f35b80fd5b503461012c57604036600319011261012c576004356001600160401b0381116101bd57366023820112156101bd57610171903690602481600401359101611280565b9061018e6020602435938160405193828580945193849201611238565b8101600381520301902090815483101561012c5760206101ae84846110a5565b90549060031b1c604051908152f35b5080fd5b503461012c57602036600319011261012c57604090600435815260016020522060018060a01b038154166101f760018301611192565b9161026a61020760028301611192565b916003810154906004810154610252600661022460058501611192565b93015495610244604051998a998a5260e060208b015260e08a019061125b565b9088820360408a015261125b565b926060870152608086015284820360a086015261125b565b9060c08301520390f35b503461012c57604036600319011261012c576102b1600435610294611062565b90808452836020526102ac60016040862001546112c6565b61136a565b5080f35b503461012c578060031936011261012c576020600454604051908152f35b503461012c578060031936011261012c57604060045460055482519182526020820152f35b503461012c576020806003193601126101bd576001600160a01b0361031b611047565b1682526002815260408220916040518092808554928381520194835280832092905b828210610364576103608561035481890382611171565b604051918291826110d3565b0390f35b83548652948501946001938401939091019061033d565b503461012c578060031936011261012c57602090604051908152f35b503461012c57604036600319011261012c5760406103b3611062565b91600435815280602052209060018060a01b0316600052602052602060ff604060002054166040519015158152f35b503461012c578060031936011261012c576020600554604051908152f35b503461012c576020806003193601126101bd576004356001600160401b03811161048d5761043382913690600401611078565b919082604051938492833781016003815203019020916040518092808554928381520194835280832092905b828210610476576103608561035481890382611171565b83548652948501946001938401939091019061045f565b8280fd5b503461012c57604036600319011261012c576104ab611047565b6001600160a01b031681526002602052604081208054602435929083101561012c5760206104d984846110a5565b90546040519160031b1c8152f35b503461012c57604036600319011261012c57610501611062565b336001600160a01b0382160361051d576102b19060043561136a565b60405163334bd91960e11b8152600490fd5b503461012c578060031936011261012c576040517f00000000000000000000000000000000000000000000000000000000000000006001600160a01b03168152602090f35b503461012c57604036600319011261012c576102b1600435610594611062565b90808452836020526105ac60016040862001546112c6565b6112ec565b503461012c57602036600319011261012c57600160406020926004358152808452200154604051908152f35b503461012c578060031936011261012c576040517f00000000000000000000000000000000000000000000000000000000000000006001600160a01b03168152602090f35b503461012c5760c036600319011261012c5761063c611047565b6024356001600160401b03811161048d5761065b903690600401611078565b6044929192356001600160401b038111610fee5761067d903690600401611078565b939060a4356001600160401b038111610fea5761069e903690600401611078565b7f720f0505458589595ba058bcfd851343d33065f41d4f031c4abb4757e37b3a188089528860205260408920338a5260205260ff60408a20541615610fcc57506001600160a01b03861615610f785760843515610f1c57604080516342d1f85560e11b81526001600160a01b0388166004820152602481019190915260448101869052858560648301378860648783010152602081606481601f19601f8b0116810103018160018060a01b037f0000000000000000000000000000000000000000000000000000000000000000165afa908115610f11578991610ed2575b5015610e715760045492604051936bffffffffffffffffffffffff198860601b1660208601524260348601526054850152605484528360808101106001600160401b03608086011117610cb557608084016040528351602085012097608085016101608601106001600160401b0361016087011117610e5d5761016085016040526001600160a01b038816608086015261084a93929161082d91610821368a8a611280565b60a08801523691611280565b60c085015260643560e08501526084356101008501523691611280565b61012082015242610140820152848652600160205260408620608082015181546001600160a01b0319166001600160a01b039190911617815560a08201518051919291906001600160401b038211610cb55781906108ab600186015461110e565b601f8111610e0d575b50602090601f8311600114610d9e578a92610d93575b50508160011b916000199060031b1c19161760018301555b60c08101518051906001600160401b038211610cb5578190610907600286015461110e565b601f8111610d43575b50602090601f8311600114610cd4578a92610cc9575b50508160011b916000199060031b1c19161760028301555b60e0810151600383015561010081015160048301556101208101518051906001600160401b038211610cb5579083929161097d60058a9796015461110e565b601f8111610c5d575b506020908a601f8411600114610bda5793836020969460069461014094610a039c9a9892610bcf575b50508160011b916000199060031b1c19161760058501555b01519101556001600160a01b038616885260028252604088206109eb9085906113df565b826040519384928337810160038152030190206113df565b6004546000198114610bbb576001016004556005546084358101809111610bbb57600555827f00000000000000000000000000000000000000000000000000000000000000006001600160a01b0316803b156101bd57604051632732f61760e01b81526001600160a01b038416600482015230602482015260848035604483015260648201869052909291839190829084905af18015610b9957610ba8575b506001600160a01b03818116845260026020526040842054907f0000000000000000000000000000000000000000000000000000000000000000163b15610ba457604051631eb9234160e31b81526001600160a01b03838116600483015260248201929092529084908290604490829084907f0000000000000000000000000000000000000000000000000000000000000000165af18015610b9957610b85575b60208383817f7204d52bb2f8187e2306c5fa12645fcab49a6a8d5125a9334cf6315c108403108460405193608435855260018060a01b031693a3604051908152f35b610b8f8491611148565b61048d5782610b43565b6040513d86823e3d90fd5b8380fd5b610bb490939193611148565b9138610aa2565b634e487b7160e01b84526011600452602484fd5b0151905038806109af565b50600585949392989695018b5260208b20908b5b601f1984168110610c4257509260018361014093610a039b6020999897600697601f19811610610c29575b505050811b0160058501556109c7565b015160001960f88460031b161c19169055388080610c19565b818a015183556020998a01998c995060019093019201610bee565b90919293949550600585018a5260208a20601f840160051c810160208510610cae575b908a979695949392915b601f830160051c82018110610ca0575050610986565b8c81558b9850600101610c8a565b5080610c80565b634e487b7160e01b89526041600452602489fd5b015190503880610926565b9250600285018a5260208a20908a935b601f1984168510610d28576001945083601f19811610610d0f575b505050811b01600283015561093e565b015160001960f88460031b161c19169055388080610cff565b81810151835560209485019460019093019290910190610ce4565b909150600285018a5260208a20601f840160051c810160208510610d8c575b90849392915b601f830160051c82018110610d7e575050610910565b8c8155859450600101610d68565b5080610d62565b0151905038806108ca565b9250600185018a5260208a20908a935b601f1984168510610df2576001945083601f19811610610dd9575b505050811b0160018301556108e2565b015160001960f88460031b161c19169055388080610dc9565b81810151835560209485019460019093019290910190610dae565b909150600185018a5260208a20601f840160051c810160208510610e56575b90849392915b601f830160051c82018110610e485750506108b4565b8c8155859450600101610e32565b5080610e2c565b634e487b7160e01b8a52604160045260248afd5b60405162461bcd60e51b815260206004820152603360248201527f5461736b52656769737472793a206578656375746f72206973206e6f7420612060448201527236b2b6b132b91037b3103a3432902437b637b760691b6064820152608490fd5b90506020813d602011610f09575b81610eed60209383611171565b81010312610f0557518015158103610f05573861077c565b8880fd5b3d9150610ee0565b6040513d8b823e3d90fd5b60405162461bcd60e51b815260206004820152602e60248201527f5461736b52656769737472793a20726577617264206d7573742062652067726560448201526d61746572207468616e207a65726f60901b6064820152608490fd5b60405162461bcd60e51b815260206004820152602660248201527f5461736b52656769737472793a20696e76616c6964206578656375746f72206160448201526564647265737360d01b6064820152608490fd5b6044906040519063e2517d3f60e01b82523360048301526024820152fd5b8680fd5b8480fd5b9050346101bd5760203660031901126101bd5760043563ffffffff60e01b811680910361048d5760209250637965db0b60e01b8114908115611036575b5015158152f35b6301ffc9a760e01b1490503861102f565b600435906001600160a01b038216820361105d57565b600080fd5b602435906001600160a01b038216820361105d57565b9181601f8401121561105d578235916001600160401b03831161105d576020838186019501011161105d57565b80548210156110bd5760005260206000200190600090565b634e487b7160e01b600052603260045260246000fd5b6020908160408183019282815285518094520193019160005b8281106110fa575050505090565b8351855293810193928101926001016110ec565b90600182811c9216801561113e575b602083101461112857565b634e487b7160e01b600052602260045260246000fd5b91607f169161111d565b6001600160401b03811161115b57604052565b634e487b7160e01b600052604160045260246000fd5b90601f801991011681019081106001600160401b0382111761115b57604052565b90604051918260008254926111a68461110e565b90818452600194858116908160001461121557506001146111d2575b50506111d092500383611171565b565b9093915060005260209081600020936000915b8183106111fd5750506111d0935082010138806111c2565b855488840185015294850194879450918301916111e5565b9150506111d094506020925060ff191682840152151560051b82010138806111c2565b60005b83811061124b5750506000910152565b818101518382015260200161123b565b9060209161127481518092818552858086019101611238565b601f01601f1916010190565b9291926001600160401b03821161115b57604051916112a9601f8201601f191660200184611171565b82948184528183011161105d578281602093846000960137010152565b80600052600060205260406000203360005260205260ff6040600020541615610fcc5750565b9060009180835282602052604083209160018060a01b03169182845260205260ff6040842054161560001461136557808352826020526040832082845260205260408320600160ff198254161790557f2f8788117e7eff1d82e926ec794901d17c78024a50270940304540a733656f0d339380a4600190565b505090565b9060009180835282602052604083209160018060a01b03169182845260205260ff6040842054166000146113655780835282602052604083208284526020526040832060ff1981541690557ff6391f5c32d9c69d2a47ea670b442974b53935d1edc7fd64eb21e047a839171b339380a4600190565b80546801000000000000000081101561115b57611401916001820181556110a5565b819291549060031b91821b91600019901b191617905556fea2646970667358221220f51989ab12c7dd5a5390c325b4f0e2a3b9908235e28f093491ff72451433f8aa64736f6c634300081400332f8788117e7eff1d82e926ec794901d17c78024a50270940304540a733656f0d","opcodes":"PUSH1 0xC0 CALLVALUE PUSH3 0xC2 JUMPI PUSH1 0x1F PUSH3 0x1684 CODESIZE DUP2 SWAP1 SUB SWAP2 DUP3 ADD PUSH1 0x1F NOT AND DUP4 ADD SWAP2 PUSH1 0x1 PUSH1 0x1 PUSH1 0x40 SHL SUB DUP4 GT DUP5 DUP5 LT OR PUSH3 0xC7 JUMPI DUP1 DUP5 SWAP3 PUSH1 0x40 SWAP5 DUP6 MSTORE DUP4 CODECOPY DUP2 ADD SUB SLT PUSH3 0xC2 JUMPI PUSH3 0x5A PUSH1 0x20 PUSH3 0x52 DUP4 PUSH3 0xDD JUMP JUMPDEST SWAP3 ADD PUSH3 0xDD JUMP JUMPDEST PUSH1 0x1 PUSH1 0x1 PUSH1 0xA0 SHL SUB SWAP2 DUP3 AND PUSH1 0x80 MSTORE AND PUSH1 0xA0 MSTORE PUSH3 0x77 CALLER PUSH3 0xF2 JUMP JUMPDEST POP PUSH3 0x83 CALLER PUSH3 0x172 JUMP JUMPDEST POP PUSH1 0x40 MLOAD PUSH2 0x144F SWAP1 DUP2 PUSH3 0x215 DUP3 CODECOPY PUSH1 0x80 MLOAD DUP2 DUP2 DUP2 PUSH2 0x545 ADD MSTORE PUSH2 0xA2A ADD MSTORE PUSH1 0xA0 MLOAD DUP2 DUP2 DUP2 PUSH2 0x5F3 ADD MSTORE DUP2 DUP2 PUSH2 0x74C ADD MSTORE DUP2 DUP2 PUSH2 0xABD ADD MSTORE PUSH2 0xB16 ADD MSTORE RETURN JUMPDEST PUSH1 0x0 DUP1 REVERT JUMPDEST PUSH4 0x4E487B71 PUSH1 0xE0 SHL PUSH1 0x0 MSTORE PUSH1 0x41 PUSH1 0x4 MSTORE PUSH1 0x24 PUSH1 0x0 REVERT JUMPDEST MLOAD SWAP1 PUSH1 0x1 PUSH1 0x1 PUSH1 0xA0 SHL SUB DUP3 AND DUP3 SUB PUSH3 0xC2 JUMPI JUMP JUMPDEST PUSH1 0x1 PUSH1 0x1 PUSH1 0xA0 SHL SUB AND PUSH1 0x0 DUP2 DUP2 MSTORE PUSH32 0xAD3228B676F7D3CD4284A5443F17F1962B36E491B30A40B2405849E597BA5FB5 PUSH1 0x20 MSTORE PUSH1 0x40 DUP2 KECCAK256 SLOAD SWAP1 SWAP2 SWAP1 PUSH1 0xFF AND PUSH3 0x16E JUMPI DUP2 DUP1 MSTORE DUP2 PUSH1 0x20 MSTORE PUSH1 0x40 DUP3 KECCAK256 DUP2 DUP4 MSTORE PUSH1 0x20 MSTORE PUSH1 0x40 DUP3 KECCAK256 PUSH1 0x1 PUSH1 0xFF NOT DUP3 SLOAD AND OR SWAP1 SSTORE CALLER SWAP2 PUSH1 0x0 DUP1 MLOAD PUSH1 0x20 PUSH3 0x1664 DUP4 CODECOPY DUP2 MLOAD SWAP2 MSTORE DUP2 DUP1 LOG4 PUSH1 0x1 SWAP1 JUMP JUMPDEST POP SWAP1 JUMP JUMPDEST PUSH1 0x1 PUSH1 0x1 PUSH1 0xA0 SHL SUB AND PUSH1 0x0 DUP2 DUP2 MSTORE PUSH32 0x8EC28F7842DBF9CCBDB0712377D51ABBC4472775E327C5EF4274DA57FD9242D6 PUSH1 0x20 MSTORE PUSH1 0x40 DUP2 KECCAK256 SLOAD SWAP1 SWAP2 SWAP1 PUSH32 0x720F0505458589595BA058BCFD851343D33065F41D4F031C4ABB4757E37B3A18 SWAP1 PUSH1 0xFF AND PUSH3 0x20F JUMPI DUP1 DUP4 MSTORE DUP3 PUSH1 0x20 MSTORE PUSH1 0x40 DUP4 KECCAK256 DUP3 DUP5 MSTORE PUSH1 0x20 MSTORE PUSH1 0x40 DUP4 KECCAK256 PUSH1 0x1 PUSH1 0xFF NOT DUP3 SLOAD AND OR SWAP1 SSTORE PUSH1 0x0 DUP1 MLOAD PUSH1 0x20 PUSH3 0x1664 DUP4 CODECOPY DUP2 MLOAD SWAP2 MSTORE CALLER SWAP4 DUP1 LOG4 PUSH1 0x1 SWAP1 JUMP JUMPDEST POP POP SWAP1 JUMP INVALID PUSH1 0x80 DUP1 PUSH1 0x40 MSTORE PUSH1 0x4 CALLDATASIZE LT ISZERO PUSH2 0x13 JUMPI PUSH1 0x0 DUP1 REVERT JUMPDEST PUSH1 0x0 SWAP1 DUP2 CALLDATALOAD PUSH1 0xE0 SHR SWAP1 DUP2 PUSH4 0x1FFC9A7 EQ PUSH2 0xFF2 JUMPI POP DUP1 PUSH4 0x12EF4488 EQ PUSH2 0x622 JUMPI DUP1 PUSH4 0x215A9E3E EQ PUSH2 0x5DD JUMPI DUP1 PUSH4 0x248A9CA3 EQ PUSH2 0x5B1 JUMPI DUP1 PUSH4 0x2F2FF15D EQ PUSH2 0x574 JUMPI DUP1 PUSH4 0x361AE5FE EQ PUSH2 0x52F JUMPI DUP1 PUSH4 0x36568ABE EQ PUSH2 0x4E7 JUMPI DUP1 PUSH4 0x4803BF87 EQ PUSH2 0x491 JUMPI DUP1 PUSH4 0x4AC6466F EQ PUSH2 0x400 JUMPI DUP1 PUSH4 0x4D419C53 EQ PUSH2 0x3E2 JUMPI DUP1 PUSH4 0x91D14854 EQ PUSH2 0x397 JUMPI DUP1 PUSH4 0xA217FDDF EQ PUSH2 0x37B JUMPI DUP1 PUSH4 0xBD039638 EQ PUSH2 0x2F8 JUMPI DUP1 PUSH4 0xC59D4847 EQ PUSH2 0x2D3 JUMPI DUP1 PUSH4 0xD22C81E5 EQ PUSH2 0x2B5 JUMPI DUP1 PUSH4 0xD547741F EQ PUSH2 0x274 JUMPI DUP1 PUSH4 0xE579F500 EQ PUSH2 0x1C1 JUMPI DUP1 PUSH4 0xE68EE8DA EQ PUSH2 0x12F JUMPI PUSH4 0xFA0F6F1C EQ PUSH2 0xF2 JUMPI PUSH1 0x0 DUP1 REVERT JUMPDEST CALLVALUE PUSH2 0x12C JUMPI DUP1 PUSH1 0x3 NOT CALLDATASIZE ADD SLT PUSH2 0x12C JUMPI PUSH1 0x20 PUSH1 0x40 MLOAD PUSH32 0x720F0505458589595BA058BCFD851343D33065F41D4F031C4ABB4757E37B3A18 DUP2 MSTORE RETURN JUMPDEST DUP1 REVERT JUMPDEST POP CALLVALUE PUSH2 0x12C JUMPI PUSH1 0x40 CALLDATASIZE PUSH1 0x3 NOT ADD SLT PUSH2 0x12C JUMPI PUSH1 0x4 CALLDATALOAD PUSH1 0x1 PUSH1 0x1 PUSH1 0x40 SHL SUB DUP2 GT PUSH2 0x1BD JUMPI CALLDATASIZE PUSH1 0x23 DUP3 ADD SLT ISZERO PUSH2 0x1BD JUMPI PUSH2 0x171 SWAP1 CALLDATASIZE SWAP1 PUSH1 0x24 DUP2 PUSH1 0x4 ADD CALLDATALOAD SWAP2 ADD PUSH2 0x1280 JUMP JUMPDEST SWAP1 PUSH2 0x18E PUSH1 0x20 PUSH1 0x24 CALLDATALOAD SWAP4 DUP2 PUSH1 0x40 MLOAD SWAP4 DUP3 DUP6 DUP1 SWAP5 MLOAD SWAP4 DUP5 SWAP3 ADD PUSH2 0x1238 JUMP JUMPDEST DUP2 ADD PUSH1 0x3 DUP2 MSTORE SUB ADD SWAP1 KECCAK256 SWAP1 DUP2 SLOAD DUP4 LT ISZERO PUSH2 0x12C JUMPI PUSH1 0x20 PUSH2 0x1AE DUP5 DUP5 PUSH2 0x10A5 JUMP JUMPDEST SWAP1 SLOAD SWAP1 PUSH1 0x3 SHL SHR PUSH1 0x40 MLOAD SWAP1 DUP2 MSTORE RETURN JUMPDEST POP DUP1 REVERT JUMPDEST POP CALLVALUE PUSH2 0x12C JUMPI PUSH1 0x20 CALLDATASIZE PUSH1 0x3 NOT ADD SLT PUSH2 0x12C JUMPI PUSH1 0x40 SWAP1 PUSH1 0x4 CALLDATALOAD DUP2 MSTORE PUSH1 0x1 PUSH1 0x20 MSTORE KECCAK256 PUSH1 0x1 DUP1 PUSH1 0xA0 SHL SUB DUP2 SLOAD AND PUSH2 0x1F7 PUSH1 0x1 DUP4 ADD PUSH2 0x1192 JUMP JUMPDEST SWAP2 PUSH2 0x26A PUSH2 0x207 PUSH1 0x2 DUP4 ADD PUSH2 0x1192 JUMP JUMPDEST SWAP2 PUSH1 0x3 DUP2 ADD SLOAD SWAP1 PUSH1 0x4 DUP2 ADD SLOAD PUSH2 0x252 PUSH1 0x6 PUSH2 0x224 PUSH1 0x5 DUP6 ADD PUSH2 0x1192 JUMP JUMPDEST SWAP4 ADD SLOAD SWAP6 PUSH2 0x244 PUSH1 0x40 MLOAD SWAP10 DUP11 SWAP10 DUP11 MSTORE PUSH1 0xE0 PUSH1 0x20 DUP12 ADD MSTORE PUSH1 0xE0 DUP11 ADD SWAP1 PUSH2 0x125B JUMP JUMPDEST SWAP1 DUP9 DUP3 SUB PUSH1 0x40 DUP11 ADD MSTORE PUSH2 0x125B JUMP JUMPDEST SWAP3 PUSH1 0x60 DUP8 ADD MSTORE PUSH1 0x80 DUP7 ADD MSTORE DUP5 DUP3 SUB PUSH1 0xA0 DUP7 ADD MSTORE PUSH2 0x125B JUMP JUMPDEST SWAP1 PUSH1 0xC0 DUP4 ADD MSTORE SUB SWAP1 RETURN JUMPDEST POP CALLVALUE PUSH2 0x12C JUMPI PUSH1 0x40 CALLDATASIZE PUSH1 0x3 NOT ADD SLT PUSH2 0x12C JUMPI PUSH2 0x2B1 PUSH1 0x4 CALLDATALOAD PUSH2 0x294 PUSH2 0x1062 JUMP JUMPDEST SWAP1 DUP1 DUP5 MSTORE DUP4 PUSH1 0x20 MSTORE PUSH2 0x2AC PUSH1 0x1 PUSH1 0x40 DUP7 KECCAK256 ADD SLOAD PUSH2 0x12C6 JUMP JUMPDEST PUSH2 0x136A JUMP JUMPDEST POP DUP1 RETURN JUMPDEST POP CALLVALUE PUSH2 0x12C JUMPI DUP1 PUSH1 0x3 NOT CALLDATASIZE ADD SLT PUSH2 0x12C JUMPI PUSH1 0x20 PUSH1 0x4 SLOAD PUSH1 0x40 MLOAD SWAP1 DUP2 MSTORE RETURN JUMPDEST POP CALLVALUE PUSH2 0x12C JUMPI DUP1 PUSH1 0x3 NOT CALLDATASIZE ADD SLT PUSH2 0x12C JUMPI PUSH1 0x40 PUSH1 0x4 SLOAD PUSH1 0x5 SLOAD DUP3 MLOAD SWAP2 DUP3 MSTORE PUSH1 0x20 DUP3 ADD MSTORE RETURN JUMPDEST POP CALLVALUE PUSH2 0x12C JUMPI PUSH1 0x20 DUP1 PUSH1 0x3 NOT CALLDATASIZE ADD SLT PUSH2 0x1BD JUMPI PUSH1 0x1 PUSH1 0x1 PUSH1 0xA0 SHL SUB PUSH2 0x31B PUSH2 0x1047 JUMP JUMPDEST AND DUP3 MSTORE PUSH1 0x2 DUP2 MSTORE PUSH1 0x40 DUP3 KECCAK256 SWAP2 PUSH1 0x40 MLOAD DUP1 SWAP3 DUP1 DUP6 SLOAD SWAP3 DUP4 DUP2 MSTORE ADD SWAP5 DUP4 MSTORE DUP1 DUP4 KECCAK256 SWAP3 SWAP1 JUMPDEST DUP3 DUP3 LT PUSH2 0x364 JUMPI PUSH2 0x360 DUP6 PUSH2 0x354 DUP2 DUP10 SUB DUP3 PUSH2 0x1171 JUMP JUMPDEST PUSH1 0x40 MLOAD SWAP2 DUP3 SWAP2 DUP3 PUSH2 0x10D3 JUMP JUMPDEST SUB SWAP1 RETURN JUMPDEST DUP4 SLOAD DUP7 MSTORE SWAP5 DUP6 ADD SWAP5 PUSH1 0x1 SWAP4 DUP5 ADD SWAP4 SWAP1 SWAP2 ADD SWAP1 PUSH2 0x33D JUMP JUMPDEST POP CALLVALUE PUSH2 0x12C JUMPI DUP1 PUSH1 0x3 NOT CALLDATASIZE ADD SLT PUSH2 0x12C JUMPI PUSH1 0x20 SWAP1 PUSH1 0x40 MLOAD SWAP1 DUP2 MSTORE RETURN JUMPDEST POP CALLVALUE PUSH2 0x12C JUMPI PUSH1 0x40 CALLDATASIZE PUSH1 0x3 NOT ADD SLT PUSH2 0x12C JUMPI PUSH1 0x40 PUSH2 0x3B3 PUSH2 0x1062 JUMP JUMPDEST SWAP2 PUSH1 0x4 CALLDATALOAD DUP2 MSTORE DUP1 PUSH1 0x20 MSTORE KECCAK256 SWAP1 PUSH1 0x1 DUP1 PUSH1 0xA0 SHL SUB AND PUSH1 0x0 MSTORE PUSH1 0x20 MSTORE PUSH1 0x20 PUSH1 0xFF PUSH1 0x40 PUSH1 0x0 KECCAK256 SLOAD AND PUSH1 0x40 MLOAD SWAP1 ISZERO ISZERO DUP2 MSTORE RETURN JUMPDEST POP CALLVALUE PUSH2 0x12C JUMPI DUP1 PUSH1 0x3 NOT CALLDATASIZE ADD SLT PUSH2 0x12C JUMPI PUSH1 0x20 PUSH1 0x5 SLOAD PUSH1 0x40 MLOAD SWAP1 DUP2 MSTORE RETURN JUMPDEST POP CALLVALUE PUSH2 0x12C JUMPI PUSH1 0x20 DUP1 PUSH1 0x3 NOT CALLDATASIZE ADD SLT PUSH2 0x1BD JUMPI PUSH1 0x4 CALLDATALOAD PUSH1 0x1 PUSH1 0x1 PUSH1 0x40 SHL SUB DUP2 GT PUSH2 0x48D JUMPI PUSH2 0x433 DUP3 SWAP2 CALLDATASIZE SWAP1 PUSH1 0x4 ADD PUSH2 0x1078 JUMP JUMPDEST SWAP2 SWAP1 DUP3 PUSH1 0x40 MLOAD SWAP4 DUP5 SWAP3 DUP4 CALLDATACOPY DUP2 ADD PUSH1 0x3 DUP2 MSTORE SUB ADD SWAP1 KECCAK256 SWAP2 PUSH1 0x40 MLOAD DUP1 SWAP3 DUP1 DUP6 SLOAD SWAP3 DUP4 DUP2 MSTORE ADD SWAP5 DUP4 MSTORE DUP1 DUP4 KECCAK256 SWAP3 SWAP1 JUMPDEST DUP3 DUP3 LT PUSH2 0x476 JUMPI PUSH2 0x360 DUP6 PUSH2 0x354 DUP2 DUP10 SUB DUP3 PUSH2 0x1171 JUMP JUMPDEST DUP4 SLOAD DUP7 MSTORE SWAP5 DUP6 ADD SWAP5 PUSH1 0x1 SWAP4 DUP5 ADD SWAP4 SWAP1 SWAP2 ADD SWAP1 PUSH2 0x45F JUMP JUMPDEST DUP3 DUP1 REVERT JUMPDEST POP CALLVALUE PUSH2 0x12C JUMPI PUSH1 0x40 CALLDATASIZE PUSH1 0x3 NOT ADD SLT PUSH2 0x12C JUMPI PUSH2 0x4AB PUSH2 0x1047 JUMP JUMPDEST PUSH1 0x1 PUSH1 0x1 PUSH1 0xA0 SHL SUB AND DUP2 MSTORE PUSH1 0x2 PUSH1 0x20 MSTORE PUSH1 0x40 DUP2 KECCAK256 DUP1 SLOAD PUSH1 0x24 CALLDATALOAD SWAP3 SWAP1 DUP4 LT ISZERO PUSH2 0x12C JUMPI PUSH1 0x20 PUSH2 0x4D9 DUP5 DUP5 PUSH2 0x10A5 JUMP JUMPDEST SWAP1 SLOAD PUSH1 0x40 MLOAD SWAP2 PUSH1 0x3 SHL SHR DUP2 MSTORE RETURN JUMPDEST POP CALLVALUE PUSH2 0x12C JUMPI PUSH1 0x40 CALLDATASIZE PUSH1 0x3 NOT ADD SLT PUSH2 0x12C JUMPI PUSH2 0x501 PUSH2 0x1062 JUMP JUMPDEST CALLER PUSH1 0x1 PUSH1 0x1 PUSH1 0xA0 SHL SUB DUP3 AND SUB PUSH2 0x51D JUMPI PUSH2 0x2B1 SWAP1 PUSH1 0x4 CALLDATALOAD PUSH2 0x136A JUMP JUMPDEST PUSH1 0x40 MLOAD PUSH4 0x334BD919 PUSH1 0xE1 SHL DUP2 MSTORE PUSH1 0x4 SWAP1 REVERT JUMPDEST POP CALLVALUE PUSH2 0x12C JUMPI DUP1 PUSH1 0x3 NOT CALLDATASIZE ADD SLT PUSH2 0x12C JUMPI PUSH1 0x40 MLOAD PUSH32 0x0 PUSH1 0x1 PUSH1 0x1 PUSH1 0xA0 SHL SUB AND DUP2 MSTORE PUSH1 0x20 SWAP1 RETURN JUMPDEST POP CALLVALUE PUSH2 0x12C JUMPI PUSH1 0x40 CALLDATASIZE PUSH1 0x3 NOT ADD SLT PUSH2 0x12C JUMPI PUSH2 0x2B1 PUSH1 0x4 CALLDATALOAD PUSH2 0x594 PUSH2 0x1062 JUMP JUMPDEST SWAP1 DUP1 DUP5 MSTORE DUP4 PUSH1 0x20 MSTORE PUSH2 0x5AC PUSH1 0x1 PUSH1 0x40 DUP7 KECCAK256 ADD SLOAD PUSH2 0x12C6 JUMP JUMPDEST PUSH2 0x12EC JUMP JUMPDEST POP CALLVALUE PUSH2 0x12C JUMPI PUSH1 0x20 CALLDATASIZE PUSH1 0x3 NOT ADD SLT PUSH2 0x12C JUMPI PUSH1 0x1 PUSH1 0x40 PUSH1 0x20 SWAP3 PUSH1 0x4 CALLDATALOAD DUP2 MSTORE DUP1 DUP5 MSTORE KECCAK256 ADD SLOAD PUSH1 0x40 MLOAD SWAP1 DUP2 MSTORE RETURN JUMPDEST POP CALLVALUE PUSH2 0x12C JUMPI DUP1 PUSH1 0x3 NOT CALLDATASIZE ADD SLT PUSH2 0x12C JUMPI PUSH1 0x40 MLOAD PUSH32 0x0 PUSH1 0x1 PUSH1 0x1 PUSH1 0xA0 SHL SUB AND DUP2 MSTORE PUSH1 0x20 SWAP1 RETURN JUMPDEST POP CALLVALUE PUSH2 0x12C JUMPI PUSH1 0xC0 CALLDATASIZE PUSH1 0x3 NOT ADD SLT PUSH2 0x12C JUMPI PUSH2 0x63C PUSH2 0x1047 JUMP JUMPDEST PUSH1 0x24 CALLDATALOAD PUSH1 0x1 PUSH1 0x1 PUSH1 0x40 SHL SUB DUP2 GT PUSH2 0x48D JUMPI PUSH2 0x65B SWAP1 CALLDATASIZE SWAP1 PUSH1 0x4 ADD PUSH2 0x1078 JUMP JUMPDEST PUSH1 0x44 SWAP3 SWAP2 SWAP3 CALLDATALOAD PUSH1 0x1 PUSH1 0x1 PUSH1 0x40 SHL SUB DUP2 GT PUSH2 0xFEE JUMPI PUSH2 0x67D SWAP1 CALLDATASIZE SWAP1 PUSH1 0x4 ADD PUSH2 0x1078 JUMP JUMPDEST SWAP4 SWAP1 PUSH1 0xA4 CALLDATALOAD PUSH1 0x1 PUSH1 0x1 PUSH1 0x40 SHL SUB DUP2 GT PUSH2 0xFEA JUMPI PUSH2 0x69E SWAP1 CALLDATASIZE SWAP1 PUSH1 0x4 ADD PUSH2 0x1078 JUMP JUMPDEST PUSH32 0x720F0505458589595BA058BCFD851343D33065F41D4F031C4ABB4757E37B3A18 DUP1 DUP10 MSTORE DUP9 PUSH1 0x20 MSTORE PUSH1 0x40 DUP10 KECCAK256 CALLER DUP11 MSTORE PUSH1 0x20 MSTORE PUSH1 0xFF PUSH1 0x40 DUP11 KECCAK256 SLOAD AND ISZERO PUSH2 0xFCC JUMPI POP PUSH1 0x1 PUSH1 0x1 PUSH1 0xA0 SHL SUB DUP7 AND ISZERO PUSH2 0xF78 JUMPI PUSH1 0x84 CALLDATALOAD ISZERO PUSH2 0xF1C JUMPI PUSH1 0x40 DUP1 MLOAD PUSH4 0x42D1F855 PUSH1 0xE1 SHL DUP2 MSTORE PUSH1 0x1 PUSH1 0x1 PUSH1 0xA0 SHL SUB DUP9 AND PUSH1 0x4 DUP3 ADD MSTORE PUSH1 0x24 DUP2 ADD SWAP2 SWAP1 SWAP2 MSTORE PUSH1 0x44 DUP2 ADD DUP7 SWAP1 MSTORE DUP6 DUP6 PUSH1 0x64 DUP4 ADD CALLDATACOPY DUP9 PUSH1 0x64 DUP8 DUP4 ADD ADD MSTORE PUSH1 0x20 DUP2 PUSH1 0x64 DUP2 PUSH1 0x1F NOT PUSH1 0x1F DUP12 ADD AND DUP2 ADD SUB ADD DUP2 PUSH1 0x1 DUP1 PUSH1 0xA0 SHL SUB PUSH32 0x0 AND GAS STATICCALL SWAP1 DUP2 ISZERO PUSH2 0xF11 JUMPI DUP10 SWAP2 PUSH2 0xED2 JUMPI JUMPDEST POP ISZERO PUSH2 0xE71 JUMPI PUSH1 0x4 SLOAD SWAP3 PUSH1 0x40 MLOAD SWAP4 PUSH12 0xFFFFFFFFFFFFFFFFFFFFFFFF NOT DUP9 PUSH1 0x60 SHL AND PUSH1 0x20 DUP7 ADD MSTORE TIMESTAMP PUSH1 0x34 DUP7 ADD MSTORE PUSH1 0x54 DUP6 ADD MSTORE PUSH1 0x54 DUP5 MSTORE DUP4 PUSH1 0x80 DUP2 ADD LT PUSH1 0x1 PUSH1 0x1 PUSH1 0x40 SHL SUB PUSH1 0x80 DUP7 ADD GT OR PUSH2 0xCB5 JUMPI PUSH1 0x80 DUP5 ADD PUSH1 0x40 MSTORE DUP4 MLOAD PUSH1 0x20 DUP6 ADD KECCAK256 SWAP8 PUSH1 0x80 DUP6 ADD PUSH2 0x160 DUP7 ADD LT PUSH1 0x1 PUSH1 0x1 PUSH1 0x40 SHL SUB PUSH2 0x160 DUP8 ADD GT OR PUSH2 0xE5D JUMPI PUSH2 0x160 DUP6 ADD PUSH1 0x40 MSTORE PUSH1 0x1 PUSH1 0x1 PUSH1 0xA0 SHL SUB DUP9 AND PUSH1 0x80 DUP7 ADD MSTORE PUSH2 0x84A SWAP4 SWAP3 SWAP2 PUSH2 0x82D SWAP2 PUSH2 0x821 CALLDATASIZE DUP11 DUP11 PUSH2 0x1280 JUMP JUMPDEST PUSH1 0xA0 DUP9 ADD MSTORE CALLDATASIZE SWAP2 PUSH2 0x1280 JUMP JUMPDEST PUSH1 0xC0 DUP6 ADD MSTORE PUSH1 0x64 CALLDATALOAD PUSH1 0xE0 DUP6 ADD MSTORE PUSH1 0x84 CALLDATALOAD PUSH2 0x100 DUP6 ADD MSTORE CALLDATASIZE SWAP2 PUSH2 0x1280 JUMP JUMPDEST PUSH2 0x120 DUP3 ADD MSTORE TIMESTAMP PUSH2 0x140 DUP3 ADD MSTORE DUP5 DUP7 MSTORE PUSH1 0x1 PUSH1 0x20 MSTORE PUSH1 0x40 DUP7 KECCAK256 PUSH1 0x80 DUP3 ADD MLOAD DUP2 SLOAD PUSH1 0x1 PUSH1 0x1 PUSH1 0xA0 SHL SUB NOT AND PUSH1 0x1 PUSH1 0x1 PUSH1 0xA0 SHL SUB SWAP2 SWAP1 SWAP2 AND OR DUP2 SSTORE PUSH1 0xA0 DUP3 ADD MLOAD DUP1 MLOAD SWAP2 SWAP3 SWAP2 SWAP1 PUSH1 0x1 PUSH1 0x1 PUSH1 0x40 SHL SUB DUP3 GT PUSH2 0xCB5 JUMPI DUP2 SWAP1 PUSH2 0x8AB PUSH1 0x1 DUP7 ADD SLOAD PUSH2 0x110E JUMP JUMPDEST PUSH1 0x1F DUP2 GT PUSH2 0xE0D JUMPI JUMPDEST POP PUSH1 0x20 SWAP1 PUSH1 0x1F DUP4 GT PUSH1 0x1 EQ PUSH2 0xD9E JUMPI DUP11 SWAP3 PUSH2 0xD93 JUMPI JUMPDEST POP POP DUP2 PUSH1 0x1 SHL SWAP2 PUSH1 0x0 NOT SWAP1 PUSH1 0x3 SHL SHR NOT AND OR PUSH1 0x1 DUP4 ADD SSTORE JUMPDEST PUSH1 0xC0 DUP2 ADD MLOAD DUP1 MLOAD SWAP1 PUSH1 0x1 PUSH1 0x1 PUSH1 0x40 SHL SUB DUP3 GT PUSH2 0xCB5 JUMPI DUP2 SWAP1 PUSH2 0x907 PUSH1 0x2 DUP7 ADD SLOAD PUSH2 0x110E JUMP JUMPDEST PUSH1 0x1F DUP2 GT PUSH2 0xD43 JUMPI JUMPDEST POP PUSH1 0x20 SWAP1 PUSH1 0x1F DUP4 GT PUSH1 0x1 EQ PUSH2 0xCD4 JUMPI DUP11 SWAP3 PUSH2 0xCC9 JUMPI JUMPDEST POP POP DUP2 PUSH1 0x1 SHL SWAP2 PUSH1 0x0 NOT SWAP1 PUSH1 0x3 SHL SHR NOT AND OR PUSH1 0x2 DUP4 ADD SSTORE JUMPDEST PUSH1 0xE0 DUP2 ADD MLOAD PUSH1 0x3 DUP4 ADD SSTORE PUSH2 0x100 DUP2 ADD MLOAD PUSH1 0x4 DUP4 ADD SSTORE PUSH2 0x120 DUP2 ADD MLOAD DUP1 MLOAD SWAP1 PUSH1 0x1 PUSH1 0x1 PUSH1 0x40 SHL SUB DUP3 GT PUSH2 0xCB5 JUMPI SWAP1 DUP4 SWAP3 SWAP2 PUSH2 0x97D PUSH1 0x5 DUP11 SWAP8 SWAP7 ADD SLOAD PUSH2 0x110E JUMP JUMPDEST PUSH1 0x1F DUP2 GT PUSH2 0xC5D JUMPI JUMPDEST POP PUSH1 0x20 SWAP1 DUP11 PUSH1 0x1F DUP5 GT PUSH1 0x1 EQ PUSH2 0xBDA JUMPI SWAP4 DUP4 PUSH1 0x20 SWAP7 SWAP5 PUSH1 0x6 SWAP5 PUSH2 0x140 SWAP5 PUSH2 0xA03 SWAP13 SWAP11 SWAP9 SWAP3 PUSH2 0xBCF JUMPI JUMPDEST POP POP DUP2 PUSH1 0x1 SHL SWAP2 PUSH1 0x0 NOT SWAP1 PUSH1 0x3 SHL SHR NOT AND OR PUSH1 0x5 DUP6 ADD SSTORE JUMPDEST ADD MLOAD SWAP2 ADD SSTORE PUSH1 0x1 PUSH1 0x1 PUSH1 0xA0 SHL SUB DUP7 AND DUP9 MSTORE PUSH1 0x2 DUP3 MSTORE PUSH1 0x40 DUP9 KECCAK256 PUSH2 0x9EB SWAP1 DUP6 SWAP1 PUSH2 0x13DF JUMP JUMPDEST DUP3 PUSH1 0x40 MLOAD SWAP4 DUP5 SWAP3 DUP4 CALLDATACOPY DUP2 ADD PUSH1 0x3 DUP2 MSTORE SUB ADD SWAP1 KECCAK256 PUSH2 0x13DF JUMP JUMPDEST PUSH1 0x4 SLOAD PUSH1 0x0 NOT DUP2 EQ PUSH2 0xBBB JUMPI PUSH1 0x1 ADD PUSH1 0x4 SSTORE PUSH1 0x5 SLOAD PUSH1 0x84 CALLDATALOAD DUP2 ADD DUP1 SWAP2 GT PUSH2 0xBBB JUMPI PUSH1 0x5 SSTORE DUP3 PUSH32 0x0 PUSH1 0x1 PUSH1 0x1 PUSH1 0xA0 SHL SUB AND DUP1 EXTCODESIZE ISZERO PUSH2 0x1BD JUMPI PUSH1 0x40 MLOAD PUSH4 0x2732F617 PUSH1 0xE0 SHL DUP2 MSTORE PUSH1 0x1 PUSH1 0x1 PUSH1 0xA0 SHL SUB DUP5 AND PUSH1 0x4 DUP3 ADD MSTORE ADDRESS PUSH1 0x24 DUP3 ADD MSTORE PUSH1 0x84 DUP1 CALLDATALOAD PUSH1 0x44 DUP4 ADD MSTORE PUSH1 0x64 DUP3 ADD DUP7 SWAP1 MSTORE SWAP1 SWAP3 SWAP2 DUP4 SWAP2 SWAP1 DUP3 SWAP1 DUP5 SWAP1 GAS CALL DUP1 ISZERO PUSH2 0xB99 JUMPI PUSH2 0xBA8 JUMPI JUMPDEST POP PUSH1 0x1 PUSH1 0x1 PUSH1 0xA0 SHL SUB DUP2 DUP2 AND DUP5 MSTORE PUSH1 0x2 PUSH1 0x20 MSTORE PUSH1 0x40 DUP5 KECCAK256 SLOAD SWAP1 PUSH32 0x0 AND EXTCODESIZE ISZERO PUSH2 0xBA4 JUMPI PUSH1 0x40 MLOAD PUSH4 0x1EB92341 PUSH1 0xE3 SHL DUP2 MSTORE PUSH1 0x1 PUSH1 0x1 PUSH1 0xA0 SHL SUB DUP4 DUP2 AND PUSH1 0x4 DUP4 ADD MSTORE PUSH1 0x24 DUP3 ADD SWAP3 SWAP1 SWAP3 MSTORE SWAP1 DUP5 SWAP1 DUP3 SWAP1 PUSH1 0x44 SWAP1 DUP3 SWAP1 DUP5 SWAP1 PUSH32 0x0 AND GAS CALL DUP1 ISZERO PUSH2 0xB99 JUMPI PUSH2 0xB85 JUMPI JUMPDEST PUSH1 0x20 DUP4 DUP4 DUP2 PUSH32 0x7204D52BB2F8187E2306C5FA12645FCAB49A6A8D5125A9334CF6315C10840310 DUP5 PUSH1 0x40 MLOAD SWAP4 PUSH1 0x84 CALLDATALOAD DUP6 MSTORE PUSH1 0x1 DUP1 PUSH1 0xA0 SHL SUB AND SWAP4 LOG3 PUSH1 0x40 MLOAD SWAP1 DUP2 MSTORE RETURN JUMPDEST PUSH2 0xB8F DUP5 SWAP2 PUSH2 0x1148 JUMP JUMPDEST PUSH2 0x48D JUMPI DUP3 PUSH2 0xB43 JUMP JUMPDEST PUSH1 0x40 MLOAD RETURNDATASIZE DUP7 DUP3 RETURNDATACOPY RETURNDATASIZE SWAP1 REVERT JUMPDEST DUP4 DUP1 REVERT JUMPDEST PUSH2 0xBB4 SWAP1 SWAP4 SWAP2 SWAP4 PUSH2 0x1148 JUMP JUMPDEST SWAP2 CODESIZE PUSH2 0xAA2 JUMP JUMPDEST PUSH4 0x4E487B71 PUSH1 0xE0 SHL DUP5 MSTORE PUSH1 0x11 PUSH1 0x4 MSTORE PUSH1 0x24 DUP5 REVERT JUMPDEST ADD MLOAD SWAP1 POP CODESIZE DUP1 PUSH2 0x9AF JUMP JUMPDEST POP PUSH1 0x5 DUP6 SWAP5 SWAP4 SWAP3 SWAP9 SWAP7 SWAP6 ADD DUP12 MSTORE PUSH1 0x20 DUP12 KECCAK256 SWAP1 DUP12 JUMPDEST PUSH1 0x1F NOT DUP5 AND DUP2 LT PUSH2 0xC42 JUMPI POP SWAP3 PUSH1 0x1 DUP4 PUSH2 0x140 SWAP4 PUSH2 0xA03 SWAP12 PUSH1 0x20 SWAP10 SWAP9 SWAP8 PUSH1 0x6 SWAP8 PUSH1 0x1F NOT DUP2 AND LT PUSH2 0xC29 JUMPI JUMPDEST POP POP POP DUP2 SHL ADD PUSH1 0x5 DUP6 ADD SSTORE PUSH2 0x9C7 JUMP JUMPDEST ADD MLOAD PUSH1 0x0 NOT PUSH1 0xF8 DUP5 PUSH1 0x3 SHL AND SHR NOT AND SWAP1 SSTORE CODESIZE DUP1 DUP1 PUSH2 0xC19 JUMP JUMPDEST DUP2 DUP11 ADD MLOAD DUP4 SSTORE PUSH1 0x20 SWAP10 DUP11 ADD SWAP10 DUP13 SWAP10 POP PUSH1 0x1 SWAP1 SWAP4 ADD SWAP3 ADD PUSH2 0xBEE JUMP JUMPDEST SWAP1 SWAP2 SWAP3 SWAP4 SWAP5 SWAP6 POP PUSH1 0x5 DUP6 ADD DUP11 MSTORE PUSH1 0x20 DUP11 KECCAK256 PUSH1 0x1F DUP5 ADD PUSH1 0x5 SHR DUP2 ADD PUSH1 0x20 DUP6 LT PUSH2 0xCAE JUMPI JUMPDEST SWAP1 DUP11 SWAP8 SWAP7 SWAP6 SWAP5 SWAP4 SWAP3 SWAP2 JUMPDEST PUSH1 0x1F DUP4 ADD PUSH1 0x5 SHR DUP3 ADD DUP2 LT PUSH2 0xCA0 JUMPI POP POP PUSH2 0x986 JUMP JUMPDEST DUP13 DUP2 SSTORE DUP12 SWAP9 POP PUSH1 0x1 ADD PUSH2 0xC8A JUMP JUMPDEST POP DUP1 PUSH2 0xC80 JUMP JUMPDEST PUSH4 0x4E487B71 PUSH1 0xE0 SHL DUP10 MSTORE PUSH1 0x41 PUSH1 0x4 MSTORE PUSH1 0x24 DUP10 REVERT JUMPDEST ADD MLOAD SWAP1 POP CODESIZE DUP1 PUSH2 0x926 JUMP JUMPDEST SWAP3 POP PUSH1 0x2 DUP6 ADD DUP11 MSTORE PUSH1 0x20 DUP11 KECCAK256 SWAP1 DUP11 SWAP4 JUMPDEST PUSH1 0x1F NOT DUP5 AND DUP6 LT PUSH2 0xD28 JUMPI PUSH1 0x1 SWAP5 POP DUP4 PUSH1 0x1F NOT DUP2 AND LT PUSH2 0xD0F JUMPI JUMPDEST POP POP POP DUP2 SHL ADD PUSH1 0x2 DUP4 ADD SSTORE PUSH2 0x93E JUMP JUMPDEST ADD MLOAD PUSH1 0x0 NOT PUSH1 0xF8 DUP5 PUSH1 0x3 SHL AND SHR NOT AND SWAP1 SSTORE CODESIZE DUP1 DUP1 PUSH2 0xCFF JUMP JUMPDEST DUP2 DUP2 ADD MLOAD DUP4 SSTORE PUSH1 0x20 SWAP5 DUP6 ADD SWAP5 PUSH1 0x1 SWAP1 SWAP4 ADD SWAP3 SWAP1 SWAP2 ADD SWAP1 PUSH2 0xCE4 JUMP JUMPDEST SWAP1 SWAP2 POP PUSH1 0x2 DUP6 ADD DUP11 MSTORE PUSH1 0x20 DUP11 KECCAK256 PUSH1 0x1F DUP5 ADD PUSH1 0x5 SHR DUP2 ADD PUSH1 0x20 DUP6 LT PUSH2 0xD8C JUMPI JUMPDEST SWAP1 DUP5 SWAP4 SWAP3 SWAP2 JUMPDEST PUSH1 0x1F DUP4 ADD PUSH1 0x5 SHR DUP3 ADD DUP2 LT PUSH2 0xD7E JUMPI POP POP PUSH2 0x910 JUMP JUMPDEST DUP13 DUP2 SSTORE DUP6 SWAP5 POP PUSH1 0x1 ADD PUSH2 0xD68 JUMP JUMPDEST POP DUP1 PUSH2 0xD62 JUMP JUMPDEST ADD MLOAD SWAP1 POP CODESIZE DUP1 PUSH2 0x8CA JUMP JUMPDEST SWAP3 POP PUSH1 0x1 DUP6 ADD DUP11 MSTORE PUSH1 0x20 DUP11 KECCAK256 SWAP1 DUP11 SWAP4 JUMPDEST PUSH1 0x1F NOT DUP5 AND DUP6 LT PUSH2 0xDF2 JUMPI PUSH1 0x1 SWAP5 POP DUP4 PUSH1 0x1F NOT DUP2 AND LT PUSH2 0xDD9 JUMPI JUMPDEST POP POP POP DUP2 SHL ADD PUSH1 0x1 DUP4 ADD SSTORE PUSH2 0x8E2 JUMP JUMPDEST ADD MLOAD PUSH1 0x0 NOT PUSH1 0xF8 DUP5 PUSH1 0x3 SHL AND SHR NOT AND SWAP1 SSTORE CODESIZE DUP1 DUP1 PUSH2 0xDC9 JUMP JUMPDEST DUP2 DUP2 ADD MLOAD DUP4 SSTORE PUSH1 0x20 SWAP5 DUP6 ADD SWAP5 PUSH1 0x1 SWAP1 SWAP4 ADD SWAP3 SWAP1 SWAP2 ADD SWAP1 PUSH2 0xDAE JUMP JUMPDEST SWAP1 SWAP2 POP PUSH1 0x1 DUP6 ADD DUP11 MSTORE PUSH1 0x20 DUP11 KECCAK256 PUSH1 0x1F DUP5 ADD PUSH1 0x5 SHR DUP2 ADD PUSH1 0x20 DUP6 LT PUSH2 0xE56 JUMPI JUMPDEST SWAP1 DUP5 SWAP4 SWAP3 SWAP2 JUMPDEST PUSH1 0x1F DUP4 ADD PUSH1 0x5 SHR DUP3 ADD DUP2 LT PUSH2 0xE48 JUMPI POP POP PUSH2 0x8B4 JUMP JUMPDEST DUP13 DUP2 SSTORE DUP6 SWAP5 POP PUSH1 0x1 ADD PUSH2 0xE32 JUMP JUMPDEST POP DUP1 PUSH2 0xE2C JUMP JUMPDEST PUSH4 0x4E487B71 PUSH1 0xE0 SHL DUP11 MSTORE PUSH1 0x41 PUSH1 0x4 MSTORE PUSH1 0x24 DUP11 REVERT JUMPDEST PUSH1 0x40 MLOAD PUSH3 0x461BCD PUSH1 0xE5 SHL DUP2 MSTORE PUSH1 0x20 PUSH1 0x4 DUP3 ADD MSTORE PUSH1 0x33 PUSH1 0x24 DUP3 ADD MSTORE PUSH32 0x5461736B52656769737472793A206578656375746F72206973206E6F74206120 PUSH1 0x44 DUP3 ADD MSTORE PUSH19 0x36B2B6B132B91037B3103A3432902437B637B7 PUSH1 0x69 SHL PUSH1 0x64 DUP3 ADD MSTORE PUSH1 0x84 SWAP1 REVERT JUMPDEST SWAP1 POP PUSH1 0x20 DUP2 RETURNDATASIZE PUSH1 0x20 GT PUSH2 0xF09 JUMPI JUMPDEST DUP2 PUSH2 0xEED PUSH1 0x20 SWAP4 DUP4 PUSH2 0x1171 JUMP JUMPDEST DUP2 ADD SUB SLT PUSH2 0xF05 JUMPI MLOAD DUP1 ISZERO ISZERO DUP2 SUB PUSH2 0xF05 JUMPI CODESIZE PUSH2 0x77C JUMP JUMPDEST DUP9 DUP1 REVERT JUMPDEST RETURNDATASIZE SWAP2 POP PUSH2 0xEE0 JUMP JUMPDEST PUSH1 0x40 MLOAD RETURNDATASIZE DUP12 DUP3 RETURNDATACOPY RETURNDATASIZE SWAP1 REVERT JUMPDEST PUSH1 0x40 MLOAD PUSH3 0x461BCD PUSH1 0xE5 SHL DUP2 MSTORE PUSH1 0x20 PUSH1 0x4 DUP3 ADD MSTORE PUSH1 0x2E PUSH1 0x24 DUP3 ADD MSTORE PUSH32 0x5461736B52656769737472793A20726577617264206D75737420626520677265 PUSH1 0x44 DUP3 ADD MSTORE PUSH14 0x61746572207468616E207A65726F PUSH1 0x90 SHL PUSH1 0x64 DUP3 ADD MSTORE PUSH1 0x84 SWAP1 REVERT JUMPDEST PUSH1 0x40 MLOAD PUSH3 0x461BCD PUSH1 0xE5 SHL DUP2 MSTORE PUSH1 0x20 PUSH1 0x4 DUP3 ADD MSTORE PUSH1 0x26 PUSH1 0x24 DUP3 ADD MSTORE PUSH32 0x5461736B52656769737472793A20696E76616C6964206578656375746F722061 PUSH1 0x44 DUP3 ADD MSTORE PUSH6 0x646472657373 PUSH1 0xD0 SHL PUSH1 0x64 DUP3 ADD MSTORE PUSH1 0x84 SWAP1 REVERT JUMPDEST PUSH1 0x44 SWAP1 PUSH1 0x40 MLOAD SWAP1 PUSH4 0xE2517D3F PUSH1 0xE0 SHL DUP3 MSTORE CALLER PUSH1 0x4 DUP4 ADD MSTORE PUSH1 0x24 DUP3 ADD MSTORE REVERT JUMPDEST DUP7 DUP1 REVERT JUMPDEST DUP5 DUP1 REVERT JUMPDEST SWAP1 POP CALLVALUE PUSH2 0x1BD JUMPI PUSH1 0x20 CALLDATASIZE PUSH1 0x3 NOT ADD SLT PUSH2 0x1BD JUMPI PUSH1 0x4 CALLDATALOAD PUSH4 0xFFFFFFFF PUSH1 0xE0 SHL DUP2 AND DUP1 SWAP2 SUB PUSH2 0x48D JUMPI PUSH1 0x20 SWAP3 POP PUSH4 0x7965DB0B PUSH1 0xE0 SHL DUP2 EQ SWAP1 DUP2 ISZERO PUSH2 0x1036 JUMPI JUMPDEST POP ISZERO ISZERO DUP2 MSTORE RETURN JUMPDEST PUSH4 0x1FFC9A7 PUSH1 0xE0 SHL EQ SWAP1 POP CODESIZE PUSH2 0x102F JUMP JUMPDEST PUSH1 0x4 CALLDATALOAD SWAP1 PUSH1 0x1 PUSH1 0x1 PUSH1 0xA0 SHL SUB DUP3 AND DUP3 SUB PUSH2 0x105D JUMPI JUMP JUMPDEST PUSH1 0x0 DUP1 REVERT JUMPDEST PUSH1 0x24 CALLDATALOAD SWAP1 PUSH1 0x1 PUSH1 0x1 PUSH1 0xA0 SHL SUB DUP3 AND DUP3 SUB PUSH2 0x105D JUMPI JUMP JUMPDEST SWAP2 DUP2 PUSH1 0x1F DUP5 ADD SLT ISZERO PUSH2 0x105D JUMPI DUP3 CALLDATALOAD SWAP2 PUSH1 0x1 PUSH1 0x1 PUSH1 0x40 SHL SUB DUP4 GT PUSH2 0x105D JUMPI PUSH1 0x20 DUP4 DUP2 DUP7 ADD SWAP6 ADD ADD GT PUSH2 0x105D JUMPI JUMP JUMPDEST DUP1 SLOAD DUP3 LT ISZERO PUSH2 0x10BD JUMPI PUSH1 0x0 MSTORE PUSH1 0x20 PUSH1 0x0 KECCAK256 ADD SWAP1 PUSH1 0x0 SWAP1 JUMP JUMPDEST PUSH4 0x4E487B71 PUSH1 0xE0 SHL PUSH1 0x0 MSTORE PUSH1 0x32 PUSH1 0x4 MSTORE PUSH1 0x24 PUSH1 0x0 REVERT JUMPDEST PUSH1 0x20 SWAP1 DUP2 PUSH1 0x40 DUP2 DUP4 ADD SWAP3 DUP3 DUP2 MSTORE DUP6 MLOAD DUP1 SWAP5 MSTORE ADD SWAP4 ADD SWAP2 PUSH1 0x0 JUMPDEST DUP3 DUP2 LT PUSH2 0x10FA JUMPI POP POP POP POP SWAP1 JUMP JUMPDEST DUP4 MLOAD DUP6 MSTORE SWAP4 DUP2 ADD SWAP4 SWAP3 DUP2 ADD SWAP3 PUSH1 0x1 ADD PUSH2 0x10EC JUMP JUMPDEST SWAP1 PUSH1 0x1 DUP3 DUP2 SHR SWAP3 AND DUP1 ISZERO PUSH2 0x113E JUMPI JUMPDEST PUSH1 0x20 DUP4 LT EQ PUSH2 0x1128 JUMPI JUMP JUMPDEST PUSH4 0x4E487B71 PUSH1 0xE0 SHL PUSH1 0x0 MSTORE PUSH1 0x22 PUSH1 0x4 MSTORE PUSH1 0x24 PUSH1 0x0 REVERT JUMPDEST SWAP2 PUSH1 0x7F AND SWAP2 PUSH2 0x111D JUMP JUMPDEST PUSH1 0x1 PUSH1 0x1 PUSH1 0x40 SHL SUB DUP2 GT PUSH2 0x115B JUMPI PUSH1 0x40 MSTORE JUMP JUMPDEST PUSH4 0x4E487B71 PUSH1 0xE0 SHL PUSH1 0x0 MSTORE PUSH1 0x41 PUSH1 0x4 MSTORE PUSH1 0x24 PUSH1 0x0 REVERT JUMPDEST SWAP1 PUSH1 0x1F DUP1 NOT SWAP2 ADD AND DUP2 ADD SWAP1 DUP2 LT PUSH1 0x1 PUSH1 0x1 PUSH1 0x40 SHL SUB DUP3 GT OR PUSH2 0x115B JUMPI PUSH1 0x40 MSTORE JUMP JUMPDEST SWAP1 PUSH1 0x40 MLOAD SWAP2 DUP3 PUSH1 0x0 DUP3 SLOAD SWAP3 PUSH2 0x11A6 DUP5 PUSH2 0x110E JUMP JUMPDEST SWAP1 DUP2 DUP5 MSTORE PUSH1 0x1 SWAP5 DUP6 DUP2 AND SWAP1 DUP2 PUSH1 0x0 EQ PUSH2 0x1215 JUMPI POP PUSH1 0x1 EQ PUSH2 0x11D2 JUMPI JUMPDEST POP POP PUSH2 0x11D0 SWAP3 POP SUB DUP4 PUSH2 0x1171 JUMP JUMPDEST JUMP JUMPDEST SWAP1 SWAP4 SWAP2 POP PUSH1 0x0 MSTORE PUSH1 0x20 SWAP1 DUP2 PUSH1 0x0 KECCAK256 SWAP4 PUSH1 0x0 SWAP2 JUMPDEST DUP2 DUP4 LT PUSH2 0x11FD JUMPI POP POP PUSH2 0x11D0 SWAP4 POP DUP3 ADD ADD CODESIZE DUP1 PUSH2 0x11C2 JUMP JUMPDEST DUP6 SLOAD DUP9 DUP5 ADD DUP6 ADD MSTORE SWAP5 DUP6 ADD SWAP5 DUP8 SWAP5 POP SWAP2 DUP4 ADD SWAP2 PUSH2 0x11E5 JUMP JUMPDEST SWAP2 POP POP PUSH2 0x11D0 SWAP5 POP PUSH1 0x20 SWAP3 POP PUSH1 0xFF NOT AND DUP3 DUP5 ADD MSTORE ISZERO ISZERO PUSH1 0x5 SHL DUP3 ADD ADD CODESIZE DUP1 PUSH2 0x11C2 JUMP JUMPDEST PUSH1 0x0 JUMPDEST DUP4 DUP2 LT PUSH2 0x124B JUMPI POP POP PUSH1 0x0 SWAP2 ADD MSTORE JUMP JUMPDEST DUP2 DUP2 ADD MLOAD DUP4 DUP3 ADD MSTORE PUSH1 0x20 ADD PUSH2 0x123B JUMP JUMPDEST SWAP1 PUSH1 0x20 SWAP2 PUSH2 0x1274 DUP2 MLOAD DUP1 SWAP3 DUP2 DUP6 MSTORE DUP6 DUP1 DUP7 ADD SWAP2 ADD PUSH2 0x1238 JUMP JUMPDEST PUSH1 0x1F ADD PUSH1 0x1F NOT AND ADD ADD SWAP1 JUMP JUMPDEST SWAP3 SWAP2 SWAP3 PUSH1 0x1 PUSH1 0x1 PUSH1 0x40 SHL SUB DUP3 GT PUSH2 0x115B JUMPI PUSH1 0x40 MLOAD SWAP2 PUSH2 0x12A9 PUSH1 0x1F DUP3 ADD PUSH1 0x1F NOT AND PUSH1 0x20 ADD DUP5 PUSH2 0x1171 JUMP JUMPDEST DUP3 SWAP5 DUP2 DUP5 MSTORE DUP2 DUP4 ADD GT PUSH2 0x105D JUMPI DUP3 DUP2 PUSH1 0x20 SWAP4 DUP5 PUSH1 0x0 SWAP7 ADD CALLDATACOPY ADD ADD MSTORE JUMP JUMPDEST DUP1 PUSH1 0x0 MSTORE PUSH1 0x0 PUSH1 0x20 MSTORE PUSH1 0x40 PUSH1 0x0 KECCAK256 CALLER PUSH1 0x0 MSTORE PUSH1 0x20 MSTORE PUSH1 0xFF PUSH1 0x40 PUSH1 0x0 KECCAK256 SLOAD AND ISZERO PUSH2 0xFCC JUMPI POP JUMP JUMPDEST SWAP1 PUSH1 0x0 SWAP2 DUP1 DUP4 MSTORE DUP3 PUSH1 0x20 MSTORE PUSH1 0x40 DUP4 KECCAK256 SWAP2 PUSH1 0x1 DUP1 PUSH1 0xA0 SHL SUB AND SWAP2 DUP3 DUP5 MSTORE PUSH1 0x20 MSTORE PUSH1 0xFF PUSH1 0x40 DUP5 KECCAK256 SLOAD AND ISZERO PUSH1 0x0 EQ PUSH2 0x1365 JUMPI DUP1 DUP4 MSTORE DUP3 PUSH1 0x20 MSTORE PUSH1 0x40 DUP4 KECCAK256 DUP3 DUP5 MSTORE PUSH1 0x20 MSTORE PUSH1 0x40 DUP4 KECCAK256 PUSH1 0x1 PUSH1 0xFF NOT DUP3 SLOAD AND OR SWAP1 SSTORE PUSH32 0x2F8788117E7EFF1D82E926EC794901D17C78024A50270940304540A733656F0D CALLER SWAP4 DUP1 LOG4 PUSH1 0x1 SWAP1 JUMP JUMPDEST POP POP SWAP1 JUMP JUMPDEST SWAP1 PUSH1 0x0 SWAP2 DUP1 DUP4 MSTORE DUP3 PUSH1 0x20 MSTORE PUSH1 0x40 DUP4 KECCAK256 SWAP2 PUSH1 0x1 DUP1 PUSH1 0xA0 SHL SUB AND SWAP2 DUP3 DUP5 MSTORE PUSH1 0x20 MSTORE PUSH1 0xFF PUSH1 0x40 DUP5 KECCAK256 SLOAD AND PUSH1 0x0 EQ PUSH2 0x1365 JUMPI DUP1 DUP4 MSTORE DUP3 PUSH1 0x20 MSTORE PUSH1 0x40 DUP4 KECCAK256 DUP3 DUP5 MSTORE PUSH1 0x20 MSTORE PUSH1 0x40 DUP4 KECCAK256 PUSH1 0xFF NOT DUP2 SLOAD AND SWAP1 SSTORE PUSH32 0xF6391F5C32D9C69D2A47EA670B442974B53935D1EDC7FD64EB21E047A839171B CALLER SWAP4 DUP1 LOG4 PUSH1 0x1 SWAP1 JUMP JUMPDEST DUP1 SLOAD PUSH9 0x10000000000000000 DUP2 LT ISZERO PUSH2 0x115B JUMPI PUSH2 0x1401 SWAP2 PUSH1 0x1 DUP3 ADD DUP2 SSTORE PUSH2 0x10A5 JUMP JUMPDEST DUP2 SWAP3 SWAP2 SLOAD SWAP1 PUSH1 0x3 SHL SWAP2 DUP3 SHL SWAP2 PUSH1 0x0 NOT SWAP1 SHL NOT AND OR SWAP1 SSTORE JUMP INVALID LOG2 PUSH5 0x6970667358 0x22 SLT KECCAK256 CREATE2 NOT DUP10 0xAB SLT 0xC7 0xDD GAS MSTORE8 SWAP1 0xC3 0x25 0xB4 CREATE 0xE2 LOG3 0xB9 SWAP1 DUP3 CALLDATALOAD 0xE2 DUP16 MULMOD CALLVALUE SWAP2 SELFDESTRUCT PUSH19 0x451433F8AA64736F6C634300081400332F8788 GT PUSH31 0x7EFF1D82E926EC794901D17C78024A50270940304540A733656F0D00000000 "},"methodIdentifiers":{"DEFAULT_ADMIN_ROLE()":"a217fddf","TENZO_ROLE()":"fa0f6f1c","approveTask(address,string,string,uint256,uint256,string)":"12ef4488","getRoleAdmin(bytes32)":"248a9ca3","getStats()":"c59d4847","getTasksByExecutor(address)":"bd039638","getTasksByHolon(string)":"4ac6466f","grantRole(bytes32,address)":"2f2ff15d","hasRole(bytes32,address)":"91d14854","hocaToken()":"361ae5fe","holonSBT()":"215a9e3e","renounceRole(bytes32,address)":"36568abe","revokeRole(bytes32,address)":"d547741f","supportsInterface(bytes4)":"01ffc9a7","tasks(bytes32)":"e579f500","tasksByExecutor(address,uint256)":"4803bf87","tasksByHolon(string,uint256)":"e68ee8da","totalHocaMinted()":"4d419c53","totalTasks()":"d22c81e5"}}}}}