{
  "_format": "hh-sol-artifact-1",
  "contractName": "HolonSBT",
  "sourceName": "contracts/HolonSBT.sol",
  "abi": [
    {
      "inputs": [],
      "stateMutability": "nonpayable",
      "type": "constructor"
    },
    {
      "inputs": [],
      "name": "AccessControlBadConfirmation",
      "type": "error"
    },
    {
      "inputs": [
        {
          "internalType": "address",
          "name": "account",
          "type": "address"
        },
        {
          "internalType": "bytes32",
          "name": "neededRole",
          "type": "bytes32"
        }
      ],
      "name": "AccessControlUnauthorizedAccount",
      "type": "error"
    },
    {
      "anonymous": false,
      "inputs": [
        {
          "indexed": true,
          "internalType": "address",
          "name": "holder",
          "type": "address"
        },
        {
          "indexed": false,
          "internalType": "uint256",
          "name": "newReputation",
          "type": "uint256"
        }
      ],
      "name": "ReputationUpdated",
      "type": "event"
    },
    {
      "anonymous": false,
      "inputs": [
        {
          "indexed": true,
          "internalType": "bytes32",
          "name": "role",
          "type": "bytes32"
        },
        {
          "indexed": true,
          "internalType": "bytes32",
          "name": "previousAdminRole",
          "type": "bytes32"
        },
        {
          "indexed": true,
          "internalType": "bytes32",
          "name": "newAdminRole",
          "type": "bytes32"
        }
      ],
      "name": "RoleAdminChanged",
      "type": "event"
    },
    {
      "anonymous": false,
      "inputs": [
        {
          "indexed": true,
          "internalType": "bytes32",
          "name": "role",
          "type": "bytes32"
        },
        {
          "indexed": true,
          "internalType": "address",
          "name": "account",
          "type": "address"
        },
        {
          "indexed": true,
          "internalType": "address",
          "name": "sender",
          "type": "address"
        }
      ],
      "name": "RoleGranted",
      "type": "event"
    },
    {
      "anonymous": false,
      "inputs": [
        {
          "indexed": true,
          "internalType": "bytes32",
          "name": "role",
          "type": "bytes32"
        },
        {
          "indexed": true,
          "internalType": "address",
          "name": "account",
          "type": "address"
        },
        {
          "indexed": true,
          "internalType": "address",
          "name": "sender",
          "type": "address"
        }
      ],
      "name": "RoleRevoked",
      "type": "event"
    },
    {
      "anonymous": false,
      "inputs": [
        {
          "indexed": true,
          "internalType": "address",
          "name": "holder",
          "type": "address"
        },
        {
          "indexed": false,
          "internalType": "string",
          "name": "reason",
          "type": "string"
        }
      ],
      "name": "SBTDeactivated",
      "type": "event"
    },
    {
      "anonymous": false,
      "inputs": [
        {
          "indexed": true,
          "internalType": "address",
          "name": "to",
          "type": "address"
        },
        {
          "indexed": false,
          "internalType": "string",
          "name": "holonId",
          "type": "string"
        },
        {
          "indexed": false,
          "internalType": "string",
          "name": "role",
          "type": "string"
        }
      ],
      "name": "SBTIssued",
      "type": "event"
    },
    {
      "inputs": [],
      "name": "DEFAULT_ADMIN_ROLE",
      "outputs": [
        {
          "internalType": "bytes32",
          "name": "",
          "type": "bytes32"
        }
      ],
      "stateMutability": "view",
      "type": "function"
    },
    {
      "inputs": [],
      "name": "ISSUER_ROLE",
      "outputs": [
        {
          "internalType": "bytes32",
          "name": "",
          "type": "bytes32"
        }
      ],
      "stateMutability": "view",
      "type": "function"
    },
    {
      "inputs": [
        {
          "internalType": "address",
          "name": "holder",
          "type": "address"
        },
        {
          "internalType": "string",
          "name": "reason",
          "type": "string"
        }
      ],
      "name": "deactivate",
      "outputs": [],
      "stateMutability": "nonpayable",
      "type": "function"
    },
    {
      "inputs": [
        {
          "internalType": "string",
          "name": "holonId",
          "type": "string"
        }
      ],
      "name": "getHolonMembers",
      "outputs": [
        {
          "internalType": "address[]",
          "name": "",
          "type": "address[]"
        }
      ],
      "stateMutability": "view",
      "type": "function"
    },
    {
      "inputs": [
        {
          "internalType": "bytes32",
          "name": "role",
          "type": "bytes32"
        }
      ],
      "name": "getRoleAdmin",
      "outputs": [
        {
          "internalType": "bytes32",
          "name": "",
          "type": "bytes32"
        }
      ],
      "stateMutability": "view",
      "type": "function"
    },
    {
      "inputs": [
        {
          "internalType": "address",
          "name": "holder",
          "type": "address"
        }
      ],
      "name": "getSBT",
      "outputs": [
        {
          "components": [
            {
              "internalType": "string",
              "name": "holonId",
              "type": "string"
            },
            {
              "internalType": "string",
              "name": "role",
              "type": "string"
            },
            {
              "internalType": "uint256",
              "name": "issuedAt",
              "type": "uint256"
            },
            {
              "internalType": "bool",
              "name": "active",
              "type": "bool"
            },
            {
              "internalType": "uint256",
              "name": "reputation",
              "type": "uint256"
            }
          ],
          "internalType": "struct HolonSBT.SBT",
          "name": "",
          "type": "tuple"
        }
      ],
      "stateMutability": "view",
      "type": "function"
    },
    {
      "inputs": [
        {
          "internalType": "bytes32",
          "name": "role",
          "type": "bytes32"
        },
        {
          "internalType": "address",
          "name": "account",
          "type": "address"
        }
      ],
      "name": "grantRole",
      "outputs": [],
      "stateMutability": "nonpayable",
      "type": "function"
    },
    {
      "inputs": [
        {
          "internalType": "bytes32",
          "name": "role",
          "type": "bytes32"
        },
        {
          "internalType": "address",
          "name": "account",
          "type": "address"
        }
      ],
      "name": "hasRole",
      "outputs": [
        {
          "internalType": "bool",
          "name": "",
          "type": "bool"
        }
      ],
      "stateMutability": "view",
      "type": "function"
    },
    {
      "inputs": [
        {
          "internalType": "address",
          "name": "holder",
          "type": "address"
        },
        {
          "internalType": "string",
          "name": "holonId",
          "type": "string"
        }
      ],
      "name": "isMember",
      "outputs": [
        {
          "internalType": "bool",
          "name": "",
          "type": "bool"
        }
      ],
      "stateMutability": "view",
      "type": "function"
    },
    {
      "inputs": [
        {
          "internalType": "address",
          "name": "to",
          "type": "address"
        },
        {
          "internalType": "string",
          "name": "holonId",
          "type": "string"
        },
        {
          "internalType": "string",
          "name": "role",
          "type": "string"
        }
      ],
      "name": "issue",
      "outputs": [],
      "stateMutability": "nonpayable",
      "type": "function"
    },
    {
      "inputs": [
        {
          "internalType": "bytes32",
          "name": "role",
          "type": "bytes32"
        },
        {
          "internalType": "address",
          "name": "callerConfirmation",
          "type": "address"
        }
      ],
      "name": "renounceRole",
      "outputs": [],
      "stateMutability": "nonpayable",
      "type": "function"
    },
    {
      "inputs": [
        {
          "internalType": "bytes32",
          "name": "role",
          "type": "bytes32"
        },
        {
          "internalType": "address",
          "name": "account",
          "type": "address"
        }
      ],
      "name": "revokeRole",
      "outputs": [],
      "stateMutability": "nonpayable",
      "type": "function"
    },
    {
      "inputs": [
        {
          "internalType": "bytes4",
          "name": "interfaceId",
          "type": "bytes4"
        }
      ],
      "name": "supportsInterface",
      "outputs": [
        {
          "internalType": "bool",
          "name": "",
          "type": "bool"
        }
      ],
      "stateMutability": "view",
      "type": "function"
    },
    {
      "inputs": [],
      "name": "totalIssued",
      "outputs": [
        {
          "internalType": "uint256",
          "name": "",
          "type": "uint256"
        }
      ],
      "stateMutability": "view",
      "type": "function"
    },
    {
      "inputs": [
        {
          "internalType": "address",
          "name": "holder",
          "type": "address"
        },
        {
          "internalType": "uint256",
          "name": "newReputation",
          "type": "uint256"
        }
      ],
      "name": "updateReputation",
      "outputs": [],
      "stateMutability": "nonpayable",
      "type": "function"
    }
  ],
  "bytecode": "0x60806040523461002c5761001233610031565b5061001c336100af565b506040516110d190816101508239f35b600080fd5b6001600160a01b031660008181527fad3228b676f7d3cd4284a5443f17f1962b36e491b30a40b2405849e597ba5fb5602052604081205490919060ff166100ab57818052816020526040822081835260205260408220600160ff1982541617905533916000805160206112218339815191528180a4600190565b5090565b6001600160a01b031660008181527ff9c002f57bb53b4d861ae1ef1369a8087d06c8210e4846f897918d0e534663ce60205260408120549091907f114e74f6ea3bd819998f78687bfcb11b140da08e9b7d222fa9c1f1ba1f2aa1229060ff1661014a57808352826020526040832082845260205260408320600160ff19825416179055600080516020611221833981519152339380a4600190565b50509056fe608080604052600436101561001357600080fd5b60003560e01c90816301ffc9a714610c5157508063248a9ca314610c225780632f2ff15d14610be357806336568abe14610b9c578063370d7e841461064d57806382aefa241461061257806385a3f0aa1461056a57806391d148541461051d578063a217fddf14610501578063d547741f146104c0578063da3a010c146103c8578063e4e30e8114610295578063e502747e146101b6578063f5be3193146101985763f5c91a08146100c457600080fd5b34610193576040366003190112610193576100dd610cba565b602435906100e9610d82565b6001600160a01b031660008181526001602052604090206003015490919060ff161561014e5760207ffc577563f1b9a0461e24abef1e1fcc0d33d3d881f20b5df6dda59de4aae2c82191836000526001825280600460406000200155604051908152a2005b60405162461bcd60e51b815260206004820152601b60248201527f486f6c6f6e5342543a20534254206973206e6f742061637469766500000000006044820152606490fd5b600080fd5b34610193576000366003190112610193576020600354604051908152f35b34610193576020806003193601126101935760043567ffffffffffffffff8111610193576101e982913690600401610cd0565b91908260405193849283378101600281520301902060405190818382549182815201908192600052846000209060005b8682821061027857868661022f82880383610f31565b604051928392818401908285525180915260408401929160005b82811061025857505050500390f35b83516001600160a01b031685528695509381019392810192600101610249565b83546001600160a01b031685529093019260019283019201610219565b34610193576102a336610cfe565b3360009081527fad3228b676f7d3cd4284a5443f17f1962b36e491b30a40b2405849e597ba5fb5602090815260409091205490939060ff16156103a9576001600160a01b0316600081815260018552604090206003015490929060ff161561035a579261035583947f6b8231f99acf3005e3e1d1364026f2ead328cec95ea1d9a48323597494effd539460005260018352600360406000200160ff198154169055604051938385948552840191610fd4565b0390a2005b60405162461bcd60e51b815260048101859052602160248201527f486f6c6f6e5342543a2053425420697320616c726561647920696e61637469766044820152606560f81b6064820152608490fd5b60405163e2517d3f60e01b815233600482015260006024820152604490fd5b34610193576020806003193601126101935760a0906103e5610cba565b600060806040516103f581610f15565b606081526060858201528260408201528260608201520152600180841b03166000526001815260406000206040519161042d83610f15565b61043682610ff5565b835261044460018301610ff5565b918184019283526104a760028201549360408601948552610494600460ff6003860154169460608901951515865201549460808801958652604051988998828a52519189015260c0880190610d42565b9051868203601f19016040880152610d42565b9251606085015251151560808401525160a08301520390f35b34610193576040366003190112610193576104ff6004356104df610ca4565b908060005260006020526104fa600160406000200154610dfc565b610ea0565b005b3461019357600036600319011261019357602060405160008152f35b3461019357604036600319011261019357610536610ca4565b600435600052600060205260406000209060018060a01b0316600052602052602060ff604060002054166040519015158152f35b3461019357602061057a36610cfe565b909160018060a01b03166000526001835260406000209160405161059d81610f15565b6105a684610ff5565b81526105b460018501610ff5565b8582015260028401546040820152600460ff60038601541615159485606084015201546080820152836105ef575b5050506040519015158152f35b518051908501209250610603913691610f53565b828151910120148280806105e2565b346101935760003660031901126101935760206040517f114e74f6ea3bd819998f78687bfcb11b140da08e9b7d222fa9c1f1ba1f2aa1228152f35b3461019357606036600319011261019357610666610cba565b60243567ffffffffffffffff811161019357610686903690600401610cd0565b9060443567ffffffffffffffff8111610193576106a7903690600401610cd0565b9290936106b2610d82565b6001600160a01b03811615610b57576001600160a01b03811660009081526001602052604090206003015460ff16610afe578115610aaf576040516106f681610f15565b610701368486610f53565b815261070e368688610f53565b6020820152426040820152600160608201526000608082015260018060a01b0382166000526001602052604060002090805180519067ffffffffffffffff821161090d57819061075e8554610f9a565b601f8111610a5f575b50602090601f83116001146109f3576000926109e8575b50508160011b916000199060031b1c19161782555b602081015180519067ffffffffffffffff821161090d576107b76001850154610f9a565b601f81116109a1575b50602090601f831160011461092e57918060049492608094600092610923575b50508160011b916000199060031b1c19161760018501555b60408101516002850155600384016060820151151560ff8019835416911617905501519101556040518284823760208184810160028152030190208054906801000000000000000082101561090d57600182018082558210156108f7576000908152602090200180546001600160a01b0319166001600160a01b0383161790556003549060001982146108e1577fe710d9957a386cdc89a53c4152b0e9579cc26eea1d6ff776e767d3a9327aedb094600161035593016003556108c8604051958695604087526040870191610fd4565b84810360208601526001600160a01b0390921696610fd4565b634e487b7160e01b600052601160045260246000fd5b634e487b7160e01b600052603260045260246000fd5b634e487b7160e01b600052604160045260246000fd5b015190508b806107e0565b90601f198316916001860160005260206000209260005b81811061098957509260019285926080966004989610610970575b505050811b0160018501556107f8565b015160001960f88460031b161c191690558b8080610960565b92936020600181928786015181550195019301610945565b600185016000526020600020601f840160051c8101602085106109e1575b601f830160051c820181106109d55750506107c0565b600081556001016109bf565b50806109bf565b01519050898061077e565b9250846000526020600020906000935b601f1984168510610a44576001945083601f19811610610a2b575b505050811b018255610793565b015160001960f88460031b161c19169055898080610a1e565b81810151835560209485019460019093019290910190610a03565b909150846000526020600020601f840160051c810160208510610aa8575b90849392915b601f830160051c82018110610a99575050610767565b60008155859450600101610a83565b5080610a7d565b60405162461bcd60e51b815260206004820152602160248201527f486f6c6f6e5342543a20686f6c6f6e49642063616e6e6f7420626520656d70746044820152607960f81b6064820152608490fd5b60405162461bcd60e51b815260206004820152602b60248201527f486f6c6f6e5342543a206164647265737320616c72656164792068617320616e60448201526a081858dd1a5d994814d09560aa1b6064820152608490fd5b60405162461bcd60e51b815260206004820152601960248201527f486f6c6f6e5342543a20696e76616c69642061646472657373000000000000006044820152606490fd5b3461019357604036600319011261019357610bb5610ca4565b336001600160a01b03821603610bd1576104ff90600435610ea0565b60405163334bd91960e11b8152600490fd5b34610193576040366003190112610193576104ff600435610c02610ca4565b90806000526000602052610c1d600160406000200154610dfc565b610e22565b346101935760203660031901126101935760043560005260006020526020600160406000200154604051908152f35b34610193576020366003190112610193576004359063ffffffff60e01b821680920361019357602091637965db0b60e01b8114908115610c93575b5015158152f35b6301ffc9a760e01b14905083610c8c565b602435906001600160a01b038216820361019357565b600435906001600160a01b038216820361019357565b9181601f840112156101935782359167ffffffffffffffff8311610193576020838186019501011161019357565b906040600319830112610193576004356001600160a01b038116810361019357916024359067ffffffffffffffff821161019357610d3e91600401610cd0565b9091565b919082519283825260005b848110610d6e575050826000602080949584010152601f8019910116010190565b602081830181015184830182015201610d4d565b3360009081527ff9c002f57bb53b4d861ae1ef1369a8087d06c8210e4846f897918d0e534663ce60205260409020547f114e74f6ea3bd819998f78687bfcb11b140da08e9b7d222fa9c1f1ba1f2aa1229060ff1615610dde5750565b6044906040519063e2517d3f60e01b82523360048301526024820152fd5b80600052600060205260406000203360005260205260ff6040600020541615610dde5750565b9060009180835282602052604083209160018060a01b03169182845260205260ff60408420541615600014610e9b57808352826020526040832082845260205260408320600160ff198254161790557f2f8788117e7eff1d82e926ec794901d17c78024a50270940304540a733656f0d339380a4600190565b505090565b9060009180835282602052604083209160018060a01b03169182845260205260ff604084205416600014610e9b5780835282602052604083208284526020526040832060ff1981541690557ff6391f5c32d9c69d2a47ea670b442974b53935d1edc7fd64eb21e047a839171b339380a4600190565b60a0810190811067ffffffffffffffff82111761090d57604052565b90601f8019910116810190811067ffffffffffffffff82111761090d57604052565b92919267ffffffffffffffff821161090d5760405191610f7d601f8201601f191660200184610f31565b829481845281830111610193578281602093846000960137010152565b90600182811c92168015610fca575b6020831014610fb457565b634e487b7160e01b600052602260045260246000fd5b91607f1691610fa9565b908060209392818452848401376000828201840152601f01601f1916010190565b906040519182600082549261100984610f9a565b9081845260019485811690816000146110785750600114611035575b505061103392500383610f31565b565b9093915060005260209081600020936000915b81831061106057505061103393508201013880611025565b85548884018501529485019487945091830191611048565b91505061103394506020925060ff191682840152151560051b820101388061102556fea2646970667358221220efd2de5e8a3db2188ee841151509bb452e6e48aa7f2913497f6d20cb7c0a77ba64736f6c634300081400332f8788117e7eff1d82e926ec794901d17c78024a50270940304540a733656f0d",
  "linkReferences": {},
  "deployedLinkReferences": {}
}