{
  "_format": "hh-sol-artifact-1",
  "contractName": "HoCaToken",
  "sourceName": "contracts/HoCaToken.sol",
  "abi": [
    {
      "inputs": [],
      "stateMutability": "nonpayable",
      "type": "constructor"
    },
    {
      "inputs": [],
      "name": "AccessControlBadConfirmation",
      "type": "error"
    },
    {
      "inputs": [
        {
          "internalType": "address",
          "name": "account",
          "type": "address"
        },
        {
          "internalType": "bytes32",
          "name": "neededRole",
          "type": "bytes32"
        }
      ],
      "name": "AccessControlUnauthorizedAccount",
      "type": "error"
    },
    {
      "inputs": [
        {
          "internalType": "address",
          "name": "spender",
          "type": "address"
        },
        {
          "internalType": "uint256",
          "name": "allowance",
          "type": "uint256"
        },
        {
          "internalType": "uint256",
          "name": "needed",
          "type": "uint256"
        }
      ],
      "name": "ERC20InsufficientAllowance",
      "type": "error"
    },
    {
      "inputs": [
        {
          "internalType": "address",
          "name": "sender",
          "type": "address"
        },
        {
          "internalType": "uint256",
          "name": "balance",
          "type": "uint256"
        },
        {
          "internalType": "uint256",
          "name": "needed",
          "type": "uint256"
        }
      ],
      "name": "ERC20InsufficientBalance",
      "type": "error"
    },
    {
      "inputs": [
        {
          "internalType": "address",
          "name": "approver",
          "type": "address"
        }
      ],
      "name": "ERC20InvalidApprover",
      "type": "error"
    },
    {
      "inputs": [
        {
          "internalType": "address",
          "name": "receiver",
          "type": "address"
        }
      ],
      "name": "ERC20InvalidReceiver",
      "type": "error"
    },
    {
      "inputs": [
        {
          "internalType": "address",
          "name": "sender",
          "type": "address"
        }
      ],
      "name": "ERC20InvalidSender",
      "type": "error"
    },
    {
      "inputs": [
        {
          "internalType": "address",
          "name": "spender",
          "type": "address"
        }
      ],
      "name": "ERC20InvalidSpender",
      "type": "error"
    },
    {
      "anonymous": false,
      "inputs": [
        {
          "indexed": true,
          "internalType": "address",
          "name": "owner",
          "type": "address"
        },
        {
          "indexed": true,
          "internalType": "address",
          "name": "spender",
          "type": "address"
        },
        {
          "indexed": false,
          "internalType": "uint256",
          "name": "value",
          "type": "uint256"
        }
      ],
      "name": "Approval",
      "type": "event"
    },
    {
      "anonymous": false,
      "inputs": [
        {
          "indexed": true,
          "internalType": "bytes32",
          "name": "role",
          "type": "bytes32"
        },
        {
          "indexed": true,
          "internalType": "bytes32",
          "name": "previousAdminRole",
          "type": "bytes32"
        },
        {
          "indexed": true,
          "internalType": "bytes32",
          "name": "newAdminRole",
          "type": "bytes32"
        }
      ],
      "name": "RoleAdminChanged",
      "type": "event"
    },
    {
      "anonymous": false,
      "inputs": [
        {
          "indexed": true,
          "internalType": "bytes32",
          "name": "role",
          "type": "bytes32"
        },
        {
          "indexed": true,
          "internalType": "address",
          "name": "account",
          "type": "address"
        },
        {
          "indexed": true,
          "internalType": "address",
          "name": "sender",
          "type": "address"
        }
      ],
      "name": "RoleGranted",
      "type": "event"
    },
    {
      "anonymous": false,
      "inputs": [
        {
          "indexed": true,
          "internalType": "bytes32",
          "name": "role",
          "type": "bytes32"
        },
        {
          "indexed": true,
          "internalType": "address",
          "name": "account",
          "type": "address"
        },
        {
          "indexed": true,
          "internalType": "address",
          "name": "sender",
          "type": "address"
        }
      ],
      "name": "RoleRevoked",
      "type": "event"
    },
    {
      "anonymous": false,
      "inputs": [
        {
          "indexed": true,
          "internalType": "address",
          "name": "executor",
          "type": "address"
        },
        {
          "indexed": true,
          "internalType": "address",
          "name": "holon",
          "type": "address"
        },
        {
          "indexed": false,
          "internalType": "uint256",
          "name": "amount",
          "type": "uint256"
        },
        {
          "indexed": true,
          "internalType": "bytes32",
          "name": "taskId",
          "type": "bytes32"
        }
      ],
      "name": "TaskRewarded",
      "type": "event"
    },
    {
      "anonymous": false,
      "inputs": [
        {
          "indexed": true,
          "internalType": "address",
          "name": "from",
          "type": "address"
        },
        {
          "indexed": true,
          "internalType": "address",
          "name": "to",
          "type": "address"
        },
        {
          "indexed": false,
          "internalType": "uint256",
          "name": "value",
          "type": "uint256"
        }
      ],
      "name": "Transfer",
      "type": "event"
    },
    {
      "inputs": [],
      "name": "DEFAULT_ADMIN_ROLE",
      "outputs": [
        {
          "internalType": "bytes32",
          "name": "",
          "type": "bytes32"
        }
      ],
      "stateMutability": "view",
      "type": "function"
    },
    {
      "inputs": [],
      "name": "MAX_HOLON_SUPPLY",
      "outputs": [
        {
          "internalType": "uint256",
          "name": "",
          "type": "uint256"
        }
      ],
      "stateMutability": "view",
      "type": "function"
    },
    {
      "inputs": [],
      "name": "MINTER_ROLE",
      "outputs": [
        {
          "internalType": "bytes32",
          "name": "",
          "type": "bytes32"
        }
      ],
      "stateMutability": "view",
      "type": "function"
    },
    {
      "inputs": [
        {
          "internalType": "address",
          "name": "owner",
          "type": "address"
        },
        {
          "internalType": "address",
          "name": "spender",
          "type": "address"
        }
      ],
      "name": "allowance",
      "outputs": [
        {
          "internalType": "uint256",
          "name": "",
          "type": "uint256"
        }
      ],
      "stateMutability": "view",
      "type": "function"
    },
    {
      "inputs": [
        {
          "internalType": "address",
          "name": "spender",
          "type": "address"
        },
        {
          "internalType": "uint256",
          "name": "value",
          "type": "uint256"
        }
      ],
      "name": "approve",
      "outputs": [
        {
          "internalType": "bool",
          "name": "",
          "type": "bool"
        }
      ],
      "stateMutability": "nonpayable",
      "type": "function"
    },
    {
      "inputs": [
        {
          "internalType": "address",
          "name": "account",
          "type": "address"
        }
      ],
      "name": "balanceOf",
      "outputs": [
        {
          "internalType": "uint256",
          "name": "",
          "type": "uint256"
        }
      ],
      "stateMutability": "view",
      "type": "function"
    },
    {
      "inputs": [],
      "name": "decimals",
      "outputs": [
        {
          "internalType": "uint8",
          "name": "",
          "type": "uint8"
        }
      ],
      "stateMutability": "view",
      "type": "function"
    },
    {
      "inputs": [
        {
          "internalType": "address",
          "name": "holon",
          "type": "address"
        }
      ],
      "name": "getHolonEmission",
      "outputs": [
        {
          "internalType": "uint256",
          "name": "",
          "type": "uint256"
        }
      ],
      "stateMutability": "view",
      "type": "function"
    },
    {
      "inputs": [
        {
          "internalType": "bytes32",
          "name": "role",
          "type": "bytes32"
        }
      ],
      "name": "getRoleAdmin",
      "outputs": [
        {
          "internalType": "bytes32",
          "name": "",
          "type": "bytes32"
        }
      ],
      "stateMutability": "view",
      "type": "function"
    },
    {
      "inputs": [
        {
          "internalType": "bytes32",
          "name": "role",
          "type": "bytes32"
        },
        {
          "internalType": "address",
          "name": "account",
          "type": "address"
        }
      ],
      "name": "grantRole",
      "outputs": [],
      "stateMutability": "nonpayable",
      "type": "function"
    },
    {
      "inputs": [
        {
          "internalType": "bytes32",
          "name": "role",
          "type": "bytes32"
        },
        {
          "internalType": "address",
          "name": "account",
          "type": "address"
        }
      ],
      "name": "hasRole",
      "outputs": [
        {
          "internalType": "bool",
          "name": "",
          "type": "bool"
        }
      ],
      "stateMutability": "view",
      "type": "function"
    },
    {
      "inputs": [
        {
          "internalType": "address",
          "name": "",
          "type": "address"
        }
      ],
      "name": "holonEmitted",
      "outputs": [
        {
          "internalType": "uint256",
          "name": "",
          "type": "uint256"
        }
      ],
      "stateMutability": "view",
      "type": "function"
    },
    {
      "inputs": [
        {
          "internalType": "address",
          "name": "executor",
          "type": "address"
        },
        {
          "internalType": "address",
          "name": "holon",
          "type": "address"
        },
        {
          "internalType": "uint256",
          "name": "amount",
          "type": "uint256"
        },
        {
          "internalType": "bytes32",
          "name": "taskId",
          "type": "bytes32"
        }
      ],
      "name": "mintReward",
      "outputs": [],
      "stateMutability": "nonpayable",
      "type": "function"
    },
    {
      "inputs": [],
      "name": "name",
      "outputs": [
        {
          "internalType": "string",
          "name": "",
          "type": "string"
        }
      ],
      "stateMutability": "view",
      "type": "function"
    },
    {
      "inputs": [
        {
          "internalType": "bytes32",
          "name": "role",
          "type": "bytes32"
        },
        {
          "internalType": "address",
          "name": "callerConfirmation",
          "type": "address"
        }
      ],
      "name": "renounceRole",
      "outputs": [],
      "stateMutability": "nonpayable",
      "type": "function"
    },
    {
      "inputs": [
        {
          "internalType": "bytes32",
          "name": "role",
          "type": "bytes32"
        },
        {
          "internalType": "address",
          "name": "account",
          "type": "address"
        }
      ],
      "name": "revokeRole",
      "outputs": [],
      "stateMutability": "nonpayable",
      "type": "function"
    },
    {
      "inputs": [
        {
          "internalType": "bytes4",
          "name": "interfaceId",
          "type": "bytes4"
        }
      ],
      "name": "supportsInterface",
      "outputs": [
        {
          "internalType": "bool",
          "name": "",
          "type": "bool"
        }
      ],
      "stateMutability": "view",
      "type": "function"
    },
    {
      "inputs": [],
      "name": "symbol",
      "outputs": [
        {
          "internalType": "string",
          "name": "",
          "type": "string"
        }
      ],
      "stateMutability": "view",
      "type": "function"
    },
    {
      "inputs": [],
      "name": "totalSupply",
      "outputs": [
        {
          "internalType": "uint256",
          "name": "",
          "type": "uint256"
        }
      ],
      "stateMutability": "view",
      "type": "function"
    },
    {
      "inputs": [
        {
          "internalType": "address",
          "name": "to",
          "type": "address"
        },
        {
          "internalType": "uint256",
          "name": "value",
          "type": "uint256"
        }
      ],
      "name": "transfer",
      "outputs": [
        {
          "internalType": "bool",
          "name": "",
          "type": "bool"
        }
      ],
      "stateMutability": "nonpayable",
      "type": "function"
    },
    {
      "inputs": [
        {
          "internalType": "address",
          "name": "from",
          "type": "address"
        },
        {
          "internalType": "address",
          "name": "to",
          "type": "address"
        },
        {
          "internalType": "uint256",
          "name": "value",
          "type": "uint256"
        }
      ],
      "name": "transferFrom",
      "outputs": [
        {
          "internalType": "bool",
          "name": "",
          "type": "bool"
        }
      ],
      "stateMutability": "nonpayable",
      "type": "function"
    }
  ],
  "bytecode": "0x60803462000352576040906001600160401b0390808301828111828210176200033c578352600a8152602091692437a1b0902a37b5b2b760b11b83830152835192848401848110838211176200033c57855260049384815263484f434160e01b8282015283519083821162000327576003928354926001968785811c951680156200031c575b8386101462000307578190601f95868111620002b1575b5083908683116001146200024a576000926200023e575b505060001982871b1c191690871b1784555b8151948511620002295786548681811c911680156200021e575b828210146200020957838111620001be575b508092851160011462000150575093839491849260009562000144575b50501b92600019911b1c19161790555b620001293362000357565b506200013533620003d8565b5051610cfc90816200047c8239f35b0151935038806200010e565b92919084601f1981168860005285600020956000905b89838310620001a3575050501062000188575b50505050811b0190556200011e565b01519060f884600019921b161c191690553880808062000179565b85870151895590970196948501948893509081019062000166565b87600052816000208480880160051c820192848910620001ff575b0160051c019087905b828110620001f2575050620000f1565b60008155018790620001e2565b92508192620001d9565b602288634e487b7160e01b6000525260246000fd5b90607f1690620000df565b604187634e487b7160e01b6000525260246000fd5b015190503880620000b3565b90899350601f1983169188600052856000209260005b878282106200029a575050841162000281575b505050811b018455620000c5565b015160001983891b60f8161c1916905538808062000273565b8385015186558d9790950194938401930162000260565b90915086600052836000208680850160051c820192868610620002fd575b918b91869594930160051c01915b828110620002ed5750506200009c565b600081558594508b9101620002dd565b92508192620002cf565b602289634e487b7160e01b6000525260246000fd5b94607f169462000085565b604186634e487b7160e01b6000525260246000fd5b634e487b7160e01b600052604160045260246000fd5b600080fd5b6001600160a01b031660008181527f05b8ccbb9d4d8fb16ea74ce3c29a41f1b461fbdaff4714a0d9a8eb05499746bc602052604081205490919060ff16620003d45781805260056020526040822081835260205260408220600160ff198254161790553391600080516020620011788339815191528180a4600190565b5090565b6001600160a01b031660008181527f15a28d26fa1bf736cf7edc9922607171ccb09c3c73b808e7772a3013e068a52260205260408120549091907f9f2df0fed2c77648de5860a4cc508cd0818c85b8b8a1ab4ceeef8d981c8956a69060ff16620004765780835260056020526040832082845260205260408320600160ff1982541617905560008051602062001178833981519152339380a4600190565b50509056fe608060408181526004918236101561001657600080fd5b600092833560e01c91826301ffc9a7146109bd5750816306fdde03146108e35781630764af24146103e4578163095ea7b31461083957816318160ddd1461081a57816323b872dd14610723578163248a9ca3146106f85781632732f617146104a85781632f2ff15d1461047e578163313ce5671461046257816336568abe1461041c5781634ba5de90146103e457816370a08231146103ad578163801957041461038857816391d148541461034157816395d89b4114610222578163a217fddf14610207578163a9059cbb146101d6578163d53913931461019b578163d547741f14610157575063dd62ed3e1461010c57600080fd5b3461015357806003193601126101535780602092610128610a59565b610130610a74565b6001600160a01b0391821683526001865283832091168252845220549051908152f35b5080fd5b91905034610197578060031936011261019757610193913561018e600161017c610a74565b93838752600560205286200154610a8a565b610b4e565b5080f35b8280fd5b505034610153578160031936011261015357602090517f9f2df0fed2c77648de5860a4cc508cd0818c85b8b8a1ab4ceeef8d981c8956a68152f35b5050346101535780600319360112610153576020906102006101f6610a59565b6024359033610bc5565b5160018152f35b50503461015357816003193601126101535751908152602090f35b838334610153578160031936011261015357805190828454600181811c90808316928315610337575b60209384841081146103245783885290811561030857506001146102b3575b505050829003601f01601f191682019267ffffffffffffffff8411838510176102a0575082918261029c925282610a10565b0390f35b634e487b7160e01b815260418552602490fd5b8787529192508591837f8a35acfbc15ff81a39ae7d344fd709f28e8600b4aa8c65c6b64bfe7fe36bd19b5b8385106102f4575050505083010185808061026a565b8054888601830152930192849082016102de565b60ff1916878501525050151560051b840101905085808061026a565b634e487b7160e01b895260228a52602489fd5b91607f169161024b565b9050346101975781600319360112610197578160209360ff92610362610a74565b90358252600586528282206001600160a01b039091168252855220549151911615158152f35b5050346101535781600319360112610153576020905169d3c21bcecceda10000008152f35b5050346101535760203660031901126101535760209181906001600160a01b036103d5610a59565b16815280845220549051908152f35b5050346101535760203660031901126101535760209181906001600160a01b0361040c610a59565b1681526006845220549051908152f35b838334610153578060031936011261015357610436610a74565b90336001600160a01b038316036104535750610193919235610b4e565b5163334bd91960e11b81528390fd5b5050346101535781600319360112610153576020905160128152f35b9190503461019757806003193601126101975761019391356104a3600161017c610a74565b610ace565b905034610197576080366003190112610197576104c3610a59565b6104cb610a74565b90604435937f9f2df0fed2c77648de5860a4cc508cd0818c85b8b8a1ab4ceeef8d981c8956a69182875260209260058452828820338952845260ff8389205416156106da57506001600160a01b0390811693841561068b57861561062d5716938487526006835269d3c21bcecceda100000061054a87848a2054610ca3565b116105de5750907f5c966b9638c67f2eee4cfbad8179100ba33ec6cc80ccd8ab5ae2e7d997cd3bb49184875260068252808720610588878254610ca3565b905561059686600254610ca3565b60025583875286825280872086815401905583877fddf252ad1be2c89b69c2b068fc378daa952ba7f163c4a11628f55a4df523b3ef8484518a8152a35194855260643594a480f35b82608492519162461bcd60e51b8352820152602560248201527f486f4361546f6b656e3a20486f6c6f6e20656d697373696f6e206361702072656044820152641858da195960da1b6064820152fd5b825162461bcd60e51b8152808701859052603260248201527f486f4361546f6b656e3a2072657761726420616d6f756e74206d7573742062656044820152712067726561746572207468616e207a65726f60701b6064820152608490fd5b825162461bcd60e51b8152808701859052602360248201527f486f4361546f6b656e3a20696e76616c6964206578656375746f72206164647260448201526265737360e81b6064820152608490fd5b825163e2517d3f60e01b815233818801526024810191909152604490fd5b9050346101975760203660031901126101975781602093600192358152600585522001549051908152f35b905082346108175760603660031901126108175761073f610a59565b610747610a74565b916044359360018060a01b038316808352600160205286832033845260205286832054916000198310610783575b602088610200898989610bc5565b8683106107eb5781156107d45733156107bd5750825260016020908152868320338452815291869020908590039055829061020087610775565b8751634a1406b160e11b8152908101849052602490fd5b875163e602df0560e01b8152908101849052602490fd5b8751637dc7a0d960e11b8152339181019182526020820193909352604081018790528291506060010390fd5b80fd5b5050346101535781600319360112610153576020906002549051908152f35b905034610197578160031936011261019757610853610a59565b6024359033156108cc576001600160a01b03169182156108b557508083602095338152600187528181208582528752205582519081527f8c5be1e5ebec7d5bd14f71427d1e84f3dd0314c0f7b2291e5b200ac8c7c3b925843392a35160018152f35b8351634a1406b160e11b8152908101859052602490fd5b835163e602df0560e01b8152808401869052602490fd5b83833461015357816003193601126101535780519082600354600181811c908083169283156109b3575b602093848410811461032457838852908115610308575060011461095d57505050829003601f01601f191682019267ffffffffffffffff8411838510176102a0575082918261029c925282610a10565b600387529192508591837fc2575a0e9e593c00f959f8c92f12db2869c3395a3b0502d05e2516446f71f85b5b83851061099f575050505083010185808061026a565b805488860183015293019284908201610989565b91607f169161090d565b849134610197576020366003190112610197573563ffffffff60e01b81168091036101975760209250637965db0b60e01b81149081156109ff575b5015158152f35b6301ffc9a760e01b149050836109f8565b6020808252825181830181905290939260005b828110610a4557505060409293506000838284010152601f8019910116010190565b818101860151848201604001528501610a23565b600435906001600160a01b0382168203610a6f57565b600080fd5b602435906001600160a01b0382168203610a6f57565b80600052600560205260406000203360005260205260ff6040600020541615610ab05750565b6044906040519063e2517d3f60e01b82523360048301526024820152fd5b906000918083526005602052604083209160018060a01b03169182845260205260ff60408420541615600014610b495780835260056020526040832082845260205260408320600160ff198254161790557f2f8788117e7eff1d82e926ec794901d17c78024a50270940304540a733656f0d339380a4600190565b505090565b906000918083526005602052604083209160018060a01b03169182845260205260ff604084205416600014610b49578083526005602052604083208284526020526040832060ff1981541690557ff6391f5c32d9c69d2a47ea670b442974b53935d1edc7fd64eb21e047a839171b339380a4600190565b916001600160a01b03808416928315610c8a5716928315610c715760009083825281602052604082205490838210610c3f575091604082827fddf252ad1be2c89b69c2b068fc378daa952ba7f163c4a11628f55a4df523b3ef958760209652828652038282205586815220818154019055604051908152a3565b60405163391434e360e21b81526001600160a01b03919091166004820152602481019190915260448101839052606490fd5b60405163ec442f0560e01b815260006004820152602490fd5b604051634b637e8f60e11b815260006004820152602490fd5b91908201809211610cb057565b634e487b7160e01b600052601160045260246000fdfea26469706673582212203601b1a25a73d9c6314bb8447430ea8e8efa7f518112a5604ca7a6818da8cbac64736f6c634300081400332f8788117e7eff1d82e926ec794901d17c78024a50270940304540a733656f0d",
  "linkReferences": {},
  "deployedLinkReferences": {}
}